{
  "contractName": "HujoCoin",
  "abi": [
    {
      "inputs": [],
      "stateMutability": "nonpayable",
      "type": "constructor"
    },
    {
      "anonymous": false,
      "inputs": [
        {
          "indexed": true,
          "internalType": "address",
          "name": "_to",
          "type": "address"
        },
        {
          "indexed": false,
          "internalType": "uint256",
          "name": "_value",
          "type": "uint256"
        }
      ],
      "name": "AnnualTaxDeducted",
      "type": "event"
    },
    {
      "anonymous": false,
      "inputs": [
        {
          "indexed": true,
          "internalType": "address",
          "name": "tokenOwner",
          "type": "address"
        },
        {
          "indexed": true,
          "internalType": "address",
          "name": "spender",
          "type": "address"
        },
        {
          "indexed": false,
          "internalType": "uint256",
          "name": "tokens",
          "type": "uint256"
        }
      ],
      "name": "Approval",
      "type": "event"
    },
    {
      "anonymous": false,
      "inputs": [
        {
          "indexed": true,
          "internalType": "address",
          "name": "_from",
          "type": "address"
        },
        {
          "indexed": false,
          "internalType": "uint256",
          "name": "_value",
          "type": "uint256"
        }
      ],
      "name": "Donated",
      "type": "event"
    },
    {
      "anonymous": false,
      "inputs": [
        {
          "indexed": true,
          "internalType": "address",
          "name": "_to",
          "type": "address"
        },
        {
          "indexed": false,
          "internalType": "uint256",
          "name": "_value",
          "type": "uint256"
        }
      ],
      "name": "IdleTaxDeducted",
      "type": "event"
    },
    {
      "anonymous": false,
      "inputs": [
        {
          "indexed": true,
          "internalType": "address",
          "name": "_from",
          "type": "address"
        },
        {
          "indexed": false,
          "internalType": "uint256",
          "name": "_value",
          "type": "uint256"
        }
      ],
      "name": "Minced",
      "type": "event"
    },
    {
      "anonymous": false,
      "inputs": [
        {
          "indexed": true,
          "internalType": "address",
          "name": "_to",
          "type": "address"
        },
        {
          "indexed": false,
          "internalType": "uint256",
          "name": "_value",
          "type": "uint256"
        }
      ],
      "name": "Minted",
      "type": "event"
    },
    {
      "anonymous": false,
      "inputs": [],
      "name": "MintingDisabled",
      "type": "event"
    },
    {
      "anonymous": false,
      "inputs": [
        {
          "indexed": true,
          "internalType": "address payable",
          "name": "_from",
          "type": "address"
        },
        {
          "indexed": true,
          "internalType": "address payable",
          "name": "_to",
          "type": "address"
        }
      ],
      "name": "OwnershipTransferred",
      "type": "event"
    },
    {
      "anonymous": false,
      "inputs": [
        {
          "indexed": true,
          "internalType": "address",
          "name": "from",
          "type": "address"
        },
        {
          "indexed": true,
          "internalType": "address",
          "name": "to",
          "type": "address"
        },
        {
          "indexed": false,
          "internalType": "uint256",
          "name": "tokens",
          "type": "uint256"
        }
      ],
      "name": "Transfer",
      "type": "event"
    },
    {
      "stateMutability": "nonpayable",
      "type": "fallback"
    },
    {
      "inputs": [],
      "name": "acceptOwnership",
      "outputs": [],
      "stateMutability": "nonpayable",
      "type": "function"
    },
    {
      "inputs": [],
      "name": "mintable",
      "outputs": [
        {
          "internalType": "bool",
          "name": "",
          "type": "bool"
        }
      ],
      "stateMutability": "view",
      "type": "function",
      "constant": true
    },
    {
      "inputs": [],
      "name": "name",
      "outputs": [
        {
          "internalType": "string",
          "name": "",
          "type": "string"
        }
      ],
      "stateMutability": "view",
      "type": "function",
      "constant": true
    },
    {
      "inputs": [],
      "name": "symbol",
      "outputs": [
        {
          "internalType": "string",
          "name": "",
          "type": "string"
        }
      ],
      "stateMutability": "view",
      "type": "function",
      "constant": true
    },
    {
      "inputs": [
        {
          "internalType": "address payable",
          "name": "_newOwner",
          "type": "address"
        }
      ],
      "name": "transferOwnership",
      "outputs": [],
      "stateMutability": "nonpayable",
      "type": "function"
    },
    {
      "inputs": [
        {
          "internalType": "uint256",
          "name": "balance",
          "type": "uint256"
        }
      ],
      "name": "setMaxBalance",
      "outputs": [
        {
          "internalType": "bool",
          "name": "success",
          "type": "bool"
        }
      ],
      "stateMutability": "nonpayable",
      "type": "function"
    },
    {
      "inputs": [
        {
          "internalType": "uint256",
          "name": "balance",
          "type": "uint256"
        }
      ],
      "name": "setInitialBalance",
      "outputs": [
        {
          "internalType": "bool",
          "name": "success",
          "type": "bool"
        }
      ],
      "stateMutability": "nonpayable",
      "type": "function"
    },
    {
      "inputs": [
        {
          "internalType": "uint256",
          "name": "tax",
          "type": "uint256"
        }
      ],
      "name": "setAnnualTax",
      "outputs": [
        {
          "internalType": "bool",
          "name": "success",
          "type": "bool"
        }
      ],
      "stateMutability": "nonpayable",
      "type": "function"
    },
    {
      "inputs": [
        {
          "internalType": "uint256",
          "name": "tax",
          "type": "uint256"
        }
      ],
      "name": "setIdleTax",
      "outputs": [
        {
          "internalType": "bool",
          "name": "success",
          "type": "bool"
        }
      ],
      "stateMutability": "nonpayable",
      "type": "function"
    },
    {
      "inputs": [
        {
          "internalType": "int8",
          "name": "distancePoint",
          "type": "int8"
        }
      ],
      "name": "setMaxDistancePoint",
      "outputs": [
        {
          "internalType": "bool",
          "name": "success",
          "type": "bool"
        }
      ],
      "stateMutability": "nonpayable",
      "type": "function"
    },
    {
      "inputs": [
        {
          "internalType": "uint256",
          "name": "exchange",
          "type": "uint256"
        }
      ],
      "name": "setExchange",
      "outputs": [
        {
          "internalType": "bool",
          "name": "success",
          "type": "bool"
        }
      ],
      "stateMutability": "nonpayable",
      "type": "function"
    },
    {
      "inputs": [],
      "name": "disableMinting",
      "outputs": [
        {
          "internalType": "bool",
          "name": "success",
          "type": "bool"
        }
      ],
      "stateMutability": "nonpayable",
      "type": "function"
    },
    {
      "inputs": [
        {
          "internalType": "int8",
          "name": "roundedLong",
          "type": "int8"
        },
        {
          "internalType": "int8",
          "name": "roundedLat",
          "type": "int8"
        }
      ],
      "name": "mintEnrol",
      "outputs": [
        {
          "internalType": "bool",
          "name": "success",
          "type": "bool"
        }
      ],
      "stateMutability": "payable",
      "type": "function",
      "payable": true
    },
    {
      "inputs": [],
      "name": "mint",
      "outputs": [
        {
          "internalType": "bool",
          "name": "success",
          "type": "bool"
        }
      ],
      "stateMutability": "payable",
      "type": "function",
      "payable": true
    },
    {
      "inputs": [],
      "name": "enrolCost",
      "outputs": [
        {
          "internalType": "uint256",
          "name": "amount",
          "type": "uint256"
        }
      ],
      "stateMutability": "view",
      "type": "function",
      "constant": true
    },
    {
      "inputs": [],
      "name": "topupCost",
      "outputs": [
        {
          "internalType": "uint256",
          "name": "amount",
          "type": "uint256"
        }
      ],
      "stateMutability": "view",
      "type": "function",
      "constant": true
    },
    {
      "inputs": [],
      "name": "exchangeRate",
      "outputs": [
        {
          "internalType": "uint256",
          "name": "amount",
          "type": "uint256"
        }
      ],
      "stateMutability": "view",
      "type": "function",
      "constant": true
    },
    {
      "inputs": [
        {
          "internalType": "address",
          "name": "to",
          "type": "address"
        },
        {
          "internalType": "uint256",
          "name": "tokens",
          "type": "uint256"
        }
      ],
      "name": "mintAny",
      "outputs": [
        {
          "internalType": "bool",
          "name": "success",
          "type": "bool"
        }
      ],
      "stateMutability": "nonpayable",
      "type": "function"
    },
    {
      "inputs": [
        {
          "internalType": "address",
          "name": "from",
          "type": "address"
        },
        {
          "internalType": "uint256",
          "name": "tokens",
          "type": "uint256"
        }
      ],
      "name": "minceAny",
      "outputs": [
        {
          "internalType": "bool",
          "name": "success",
          "type": "bool"
        }
      ],
      "stateMutability": "nonpayable",
      "type": "function"
    },
    {
      "inputs": [
        {
          "internalType": "address",
          "name": "taxPayer",
          "type": "address"
        }
      ],
      "name": "annualTax",
      "outputs": [
        {
          "internalType": "bool",
          "name": "success",
          "type": "bool"
        }
      ],
      "stateMutability": "nonpayable",
      "type": "function"
    },
    {
      "inputs": [
        {
          "internalType": "address",
          "name": "taxPayer",
          "type": "address"
        }
      ],
      "name": "idleTax",
      "outputs": [
        {
          "internalType": "bool",
          "name": "success",
          "type": "bool"
        }
      ],
      "stateMutability": "nonpayable",
      "type": "function"
    },
    {
      "inputs": [],
      "name": "taxed",
      "outputs": [
        {
          "internalType": "uint256",
          "name": "tokens",
          "type": "uint256"
        }
      ],
      "stateMutability": "view",
      "type": "function",
      "constant": true
    },
    {
      "inputs": [],
      "name": "totalSupply",
      "outputs": [
        {
          "internalType": "uint256",
          "name": "",
          "type": "uint256"
        }
      ],
      "stateMutability": "view",
      "type": "function",
      "constant": true
    },
    {
      "inputs": [
        {
          "internalType": "address",
          "name": "tokenOwner",
          "type": "address"
        }
      ],
      "name": "balanceOf",
      "outputs": [
        {
          "internalType": "uint256",
          "name": "balance",
          "type": "uint256"
        }
      ],
      "stateMutability": "view",
      "type": "function",
      "constant": true
    },
    {
      "inputs": [],
      "name": "getLastTransactionDate",
      "outputs": [
        {
          "internalType": "uint256",
          "name": "lastTransactionDate",
          "type": "uint256"
        }
      ],
      "stateMutability": "view",
      "type": "function",
      "constant": true
    },
    {
      "inputs": [],
      "name": "getLastTaxedDate",
      "outputs": [
        {
          "internalType": "uint256",
          "name": "lastTaxedDate",
          "type": "uint256"
        }
      ],
      "stateMutability": "view",
      "type": "function",
      "constant": true
    },
    {
      "inputs": [
        {
          "internalType": "address",
          "name": "to",
          "type": "address"
        },
        {
          "internalType": "uint256",
          "name": "tokens",
          "type": "uint256"
        }
      ],
      "name": "transfer",
      "outputs": [
        {
          "internalType": "bool",
          "name": "success",
          "type": "bool"
        }
      ],
      "stateMutability": "nonpayable",
      "type": "function"
    },
    {
      "inputs": [
        {
          "internalType": "address",
          "name": "spender",
          "type": "address"
        },
        {
          "internalType": "uint256",
          "name": "tokens",
          "type": "uint256"
        }
      ],
      "name": "approve",
      "outputs": [
        {
          "internalType": "bool",
          "name": "success",
          "type": "bool"
        }
      ],
      "stateMutability": "nonpayable",
      "type": "function"
    },
    {
      "inputs": [
        {
          "internalType": "address",
          "name": "to",
          "type": "address"
        },
        {
          "internalType": "uint256",
          "name": "tokens",
          "type": "uint256"
        }
      ],
      "name": "promiseTo",
      "outputs": [
        {
          "internalType": "bool",
          "name": "success",
          "type": "bool"
        }
      ],
      "stateMutability": "nonpayable",
      "type": "function"
    },
    {
      "inputs": [
        {
          "internalType": "address",
          "name": "to",
          "type": "address"
        },
        {
          "internalType": "uint256",
          "name": "tokens",
          "type": "uint256"
        }
      ],
      "name": "hasPromise",
      "outputs": [
        {
          "internalType": "bool",
          "name": "success",
          "type": "bool"
        }
      ],
      "stateMutability": "view",
      "type": "function",
      "constant": true
    },
    {
      "inputs": [
        {
          "internalType": "address",
          "name": "to",
          "type": "address"
        }
      ],
      "name": "promisedTo",
      "outputs": [
        {
          "internalType": "uint256",
          "name": "tokens",
          "type": "uint256"
        }
      ],
      "stateMutability": "view",
      "type": "function",
      "constant": true
    },
    {
      "inputs": [
        {
          "internalType": "address",
          "name": "from",
          "type": "address"
        },
        {
          "internalType": "uint256",
          "name": "tokens",
          "type": "uint256"
        }
      ],
      "name": "releasePromise",
      "outputs": [
        {
          "internalType": "bool",
          "name": "success",
          "type": "bool"
        }
      ],
      "stateMutability": "nonpayable",
      "type": "function"
    },
    {
      "inputs": [
        {
          "internalType": "address",
          "name": "from",
          "type": "address"
        },
        {
          "internalType": "address",
          "name": "to",
          "type": "address"
        },
        {
          "internalType": "uint256",
          "name": "tokens",
          "type": "uint256"
        }
      ],
      "name": "transferFrom",
      "outputs": [
        {
          "internalType": "bool",
          "name": "success",
          "type": "bool"
        }
      ],
      "stateMutability": "nonpayable",
      "type": "function"
    },
    {
      "inputs": [
        {
          "internalType": "address",
          "name": "tokenOwner",
          "type": "address"
        },
        {
          "internalType": "address",
          "name": "spender",
          "type": "address"
        }
      ],
      "name": "allowance",
      "outputs": [
        {
          "internalType": "uint256",
          "name": "remaining",
          "type": "uint256"
        }
      ],
      "stateMutability": "view",
      "type": "function",
      "constant": true
    },
    {
      "inputs": [],
      "name": "donate",
      "outputs": [],
      "stateMutability": "payable",
      "type": "function",
      "payable": true
    }
  ],
  "bytecode": "0x60806040523480156200001157600080fd5b50336000806101000a81548173ffffffffffffffffffffffffffffffffffffffff021916908373ffffffffffffffffffffffffffffffffffffffff1602179055506040518060400160405280600481526020017f48554a4f00000000000000000000000000000000000000000000000000000000815250600290805190602001906200009f92919062000140565b50604051806060016040528060218152602001620036886021913960039080519060200190620000d192919062000140565b506001600460006101000a81548160ff0219169083151502179055506014600581905550600a600681905550600560088190555060016009819055506602aa1efb94e0006007819055506004600a60006101000a81548160ff021916908360000b60ff160217905550620001ef565b828054600181600116156101000203166002900490600052602060002090601f016020900481019282601f106200018357805160ff1916838001178555620001b4565b82800160010185558215620001b4579182015b82811115620001b357825182559160200191906001019062000196565b5b509050620001c39190620001c7565b5090565b620001ec91905b80821115620001e8576000816000905550600101620001ce565b5090565b90565b61348980620001ff6000396000f3fe6080604052600436106102085760003560e01c80637e5cd5c111610118578063c3833785116100a0578063e7e32e8d1161006f578063e7e32e8d14610c53578063ed88c68e14610cc6578063f2fde38b14610cd0578063f5710cc514610d21578063fd9c155f14610d7457610209565b8063c383378514610afa578063c4e4ec6414610b4d578063dd62ed3e14610b78578063e250ea4414610bfd57610209565b80639d51d9b7116100e75780639d51d9b7146109755780639e01392f146109c8578063a9059cbb146109f3578063b392bae614610a66578063c1bf3a2f14610acf57610209565b80637e5cd5c11461082657806391f606bd146108555780639276174f1461088057806395d89b41146108e557610209565b8063435d64761161019b57806369433e121161016a57806369433e12146106715780636b029806146106c457806370a082311461073757806372a477a11461079c57806379ba50971461080f57610209565b8063435d64761461051057806345938288146105835780634bf365df146105d95780634ca9d3d11461060857610209565b806323b872dd116101d757806323b872dd146103d45780633025d52a14610467578063355e0630146104925780633ba0b9a9146104e557610209565b806306fdde0314610284578063095ea7b3146103145780631249c58b1461038757806318160ddd146103a957610209565b5b34801561021557600080fd5b506040517f08c379a00000000000000000000000000000000000000000000000000000000081526004018080602001828103825260128152602001807f46756e6374696f6e206e6f7420666f756e64000000000000000000000000000081525060200191505060405180910390fd5b34801561029057600080fd5b50610299610de7565b6040518080602001828103825283818151815260200191508051906020019080838360005b838110156102d95780820151818401526020810190506102be565b50505050905090810190601f1680156103065780820380516001836020036101000a031916815260200191505b509250505060405180910390f35b34801561032057600080fd5b5061036d6004803603604081101561033757600080fd5b81019080803573ffffffffffffffffffffffffffffffffffffffff16906020019092919080359060200190929190505050610e85565b604051808215151515815260200191505060405180910390f35b61038f610f3a565b604051808215151515815260200191505060405180910390f35b3480156103b557600080fd5b506103be61128e565b6040518082815260200191505060405180910390f35b3480156103e057600080fd5b5061044d600480360360608110156103f757600080fd5b81019080803573ffffffffffffffffffffffffffffffffffffffff169060200190929190803573ffffffffffffffffffffffffffffffffffffffff16906020019092919080359060200190929190505050611296565b604051808215151515815260200191505060405180910390f35b34801561047357600080fd5b5061047c6115ac565b6040518082815260200191505060405180910390f35b34801561049e57600080fd5b506104cb600480360360208110156104b557600080fd5b81019080803590602001909291905050506115f7565b604051808215151515815260200191505060405180910390f35b3480156104f157600080fd5b506104fa611662565b6040518082815260200191505060405180910390f35b34801561051c57600080fd5b506105696004803603604081101561053357600080fd5b81019080803573ffffffffffffffffffffffffffffffffffffffff1690602001909291908035906020019092919050505061166c565b604051808215151515815260200191505060405180910390f35b34801561058f57600080fd5b506105bf600480360360208110156105a657600080fd5b81019080803560000b9060200190929190505050611e87565b604051808215151515815260200191505060405180910390f35b3480156105e557600080fd5b506105ee611f09565b604051808215151515815260200191505060405180910390f35b34801561061457600080fd5b506106576004803603602081101561062b57600080fd5b81019080803573ffffffffffffffffffffffffffffffffffffffff169060200190929190505050611f1c565b604051808215151515815260200191505060405180910390f35b34801561067d57600080fd5b506106aa6004803603602081101561069457600080fd5b8101908080359060200190929190505050612028565b604051808215151515815260200191505060405180910390f35b3480156106d057600080fd5b5061071d600480360360408110156106e757600080fd5b81019080803573ffffffffffffffffffffffffffffffffffffffff16906020019092919080359060200190929190505050612093565b604051808215151515815260200191505060405180910390f35b34801561074357600080fd5b506107866004803603602081101561075a57600080fd5b81019080803573ffffffffffffffffffffffffffffffffffffffff169060200190929190505050612189565b6040518082815260200191505060405180910390f35b3480156107a857600080fd5b506107f5600480360360408110156107bf57600080fd5b81019080803573ffffffffffffffffffffffffffffffffffffffff169060200190929190803590602001909291905050506121d2565b604051808215151515815260200191505060405180910390f35b34801561081b57600080fd5b506108246122d2565b005b34801561083257600080fd5b5061083b61246f565b604051808215151515815260200191505060405180910390f35b34801561086157600080fd5b5061086a612531565b6040518082815260200191505060405180910390f35b34801561088c57600080fd5b506108cf600480360360208110156108a357600080fd5b81019080803573ffffffffffffffffffffffffffffffffffffffff169060200190929190505050612578565b6040518082815260200191505060405180910390f35b3480156108f157600080fd5b506108fa61266a565b6040518080602001828103825283818151815260200191508051906020019080838360005b8381101561093a57808201518184015260208101905061091f565b50505050905090810190601f1680156109675780820380516001836020036101000a031916815260200191505b509250505060405180910390f35b34801561098157600080fd5b506109ae6004803603602081101561099857600080fd5b8101908080359060200190929190505050612708565b604051808215151515815260200191505060405180910390f35b3480156109d457600080fd5b506109dd612773565b6040518082815260200191505060405180910390f35b3480156109ff57600080fd5b50610a4c60048036036040811015610a1657600080fd5b81019080803573ffffffffffffffffffffffffffffffffffffffff169060200190929190803590602001909291905050506127ba565b604051808215151515815260200191505060405180910390f35b348015610a7257600080fd5b50610ab560048036036020811015610a8957600080fd5b81019080803573ffffffffffffffffffffffffffffffffffffffff16906020019092919050505061282a565b604051808215151515815260200191505060405180910390f35b348015610adb57600080fd5b50610ae4612a5c565b6040518082815260200191505060405180910390f35b348015610b0657600080fd5b50610b3360048036036020811015610b1d57600080fd5b8101908080359060200190929190505050612a6a565b604051808215151515815260200191505060405180910390f35b348015610b5957600080fd5b50610b62612ad5565b6040518082815260200191505060405180910390f35b348015610b8457600080fd5b50610be760048036036040811015610b9b57600080fd5b81019080803573ffffffffffffffffffffffffffffffffffffffff169060200190929190803573ffffffffffffffffffffffffffffffffffffffff169060200190929190505050612b1c565b6040518082815260200191505060405180910390f35b610c3960048036036040811015610c1357600080fd5b81019080803560000b9060200190929190803560000b9060200190929190505050612b66565b604051808215151515815260200191505060405180910390f35b348015610c5f57600080fd5b50610cac60048036036040811015610c7657600080fd5b81019080803573ffffffffffffffffffffffffffffffffffffffff16906020019092919080359060200190929190505050612f5f565b604051808215151515815260200191505060405180910390f35b610cce613067565b005b348015610cdc57600080fd5b50610d1f60048036036020811015610cf357600080fd5b81019080803573ffffffffffffffffffffffffffffffffffffffff16906020019092919050505061311f565b005b348015610d2d57600080fd5b50610d5a60048036036020811015610d4457600080fd5b81019080803590602001909291905050506131bc565b604051808215151515815260200191505060405180910390f35b348015610d8057600080fd5b50610dcd60048036036040811015610d9757600080fd5b81019080803573ffffffffffffffffffffffffffffffffffffffff16906020019092919080359060200190929190505050613227565b604051808215151515815260200191505060405180910390f35b60038054600181600116156101000203166002900480601f016020809104026020016040519081016040528092919081815260200182805460018160011615610100020316600290048015610e7d5780601f10610e5257610100808354040283529160200191610e7d565b820191906000526020600020905b815481529060010190602001808311610e6057829003601f168201915b505050505081565b600081601260003373ffffffffffffffffffffffffffffffffffffffff1673ffffffffffffffffffffffffffffffffffffffff168152602001908152602001600020819055508273ffffffffffffffffffffffffffffffffffffffff163373ffffffffffffffffffffffffffffffffffffffff167f8c5be1e5ebec7d5bd14f71427d1e84f3dd0314c0f7b2291e5b200ac8c7c3b925846040518082815260200191505060405180910390a36001905092915050565b6000600460009054906101000a900460ff16610f5557600080fd5b600034118015610f70575060006007543481610f6d57fe5b06145b610fc5576040517f08c379a00000000000000000000000000000000000000000000000000000000081526004018080602001828103825260258152602001806134026025913960400191505060405180910390fd5b60006007543481610fd257fe5b0490506000600e60003373ffffffffffffffffffffffffffffffffffffffff1673ffffffffffffffffffffffffffffffffffffffff168152602001908152602001600020541180156110635750600d60003373ffffffffffffffffffffffffffffffffffffffff1673ffffffffffffffffffffffffffffffffffffffff168152602001908152602001600020548111155b6110b8576040517f08c379a000000000000000000000000000000000000000000000000000000000815260040180806020018281038252602d815260200180613427602d913960400191505060405180910390fd5b6000809054906101000a900473ffffffffffffffffffffffffffffffffffffffff1673ffffffffffffffffffffffffffffffffffffffff166108fc349081150290604051600060405180830381858888f1935050505015801561111f573d6000803e3d6000fd5b5042600f60003373ffffffffffffffffffffffffffffffffffffffff1673ffffffffffffffffffffffffffffffffffffffff168152602001908152602001600020819055600e60003373ffffffffffffffffffffffffffffffffffffffff1673ffffffffffffffffffffffffffffffffffffffff168152602001908152602001600020819055506000600d60003373ffffffffffffffffffffffffffffffffffffffff1673ffffffffffffffffffffffffffffffffffffffff1681526020019081526020016000208190555080601160003373ffffffffffffffffffffffffffffffffffffffff1673ffffffffffffffffffffffffffffffffffffffff168152602001908152602001600020600082825401925050819055503373ffffffffffffffffffffffffffffffffffffffff167f30385c845b448a36257a6a1716e6ad2e1bc2cbe333cde1e69fe849ad6511adfe826040518082815260200191505060405180910390a2600191505090565b600080905090565b60008373ffffffffffffffffffffffffffffffffffffffff163373ffffffffffffffffffffffffffffffffffffffff1614611339576040517f08c379a00000000000000000000000000000000000000000000000000000000081526004018080602001828103825260148152602001807f53656e646572206973206e6f74202766726f6d2700000000000000000000000081525060200191505060405180910390fd5b60608484604051602001808373ffffffffffffffffffffffffffffffffffffffff1673ffffffffffffffffffffffffffffffffffffffff1681526020018273ffffffffffffffffffffffffffffffffffffffff1673ffffffffffffffffffffffffffffffffffffffff168152602001925050506040516020818303038152906040529050611439836010836040518082805190602001908083835b602083106113f757805182526020820191506020810190506020830392506113d4565b6001836020036101000a03801982511681845116808217855250505050505090500191505090815260200160405180910390205461332790919063ffffffff16565b6010826040518082805190602001908083835b6020831061146f578051825260208201915060208101905060208303925061144c565b6001836020036101000a0380198251168184511680821785525050505050509050019150509081526020016040518091039020819055506114f883601160008773ffffffffffffffffffffffffffffffffffffffff1673ffffffffffffffffffffffffffffffffffffffff1681526020019081526020016000205461334190919063ffffffff16565b601160008673ffffffffffffffffffffffffffffffffffffffff1673ffffffffffffffffffffffffffffffffffffffff168152602001908152602001600020819055508373ffffffffffffffffffffffffffffffffffffffff168573ffffffffffffffffffffffffffffffffffffffff167fddf252ad1be2c89b69c2b068fc378daa952ba7f163c4a11628f55a4df523b3ef856040518082815260200191505060405180910390a360019150509392505050565b6000600754600d60003373ffffffffffffffffffffffffffffffffffffffff1673ffffffffffffffffffffffffffffffffffffffff1681526020019081526020016000205402905090565b60008060009054906101000a900473ffffffffffffffffffffffffffffffffffffffff1673ffffffffffffffffffffffffffffffffffffffff163373ffffffffffffffffffffffffffffffffffffffff161461165257600080fd5b8160088190555060019050919050565b6000600754905090565b600081601260003373ffffffffffffffffffffffffffffffffffffffff1673ffffffffffffffffffffffffffffffffffffffff168152602001908152602001600020541015611723576040517f08c379a000000000000000000000000000000000000000000000000000000000815260040180806020018281038252600c8152602001807f4e6f7420617070726f766564000000000000000000000000000000000000000081525060200191505060405180910390fd5b60055482601160008673ffffffffffffffffffffffffffffffffffffffff1673ffffffffffffffffffffffffffffffffffffffff168152602001908152602001600020540111156117dc576040517f08c379a00000000000000000000000000000000000000000000000000000000081526004018080602001828103825260168152602001807f5265636965766572206f7665722d62616c616e6365640000000000000000000081525060200191505060405180910390fd5b6000600b60003373ffffffffffffffffffffffffffffffffffffffff1673ffffffffffffffffffffffffffffffffffffffff16815260200190815260200160002060009054906101000a900460000b60000b14156118a2576040517f08c379a00000000000000000000000000000000000000000000000000000000081526004018080602001828103825260158152602001807f53656e646572206e6f742072656769737465726564000000000000000000000081525060200191505060405180910390fd5b6000600b60008573ffffffffffffffffffffffffffffffffffffffff1673ffffffffffffffffffffffffffffffffffffffff16815260200190815260200160002060009054906101000a900460000b60000b1415611968576040517f08c379a00000000000000000000000000000000000000000000000000000000081526004018080602001828103825260178152602001807f5265636569766572206e6f74207265676973746572656400000000000000000081525060200191505060405180910390fd5b600a60009054906101000a900460000b60000b6002600b60008673ffffffffffffffffffffffffffffffffffffffff1673ffffffffffffffffffffffffffffffffffffffff16815260200190815260200160002060009054906101000a900460000b600b60003373ffffffffffffffffffffffffffffffffffffffff1673ffffffffffffffffffffffffffffffffffffffff16815260200190815260200160002060009054906101000a900460000b03026002600b60008773ffffffffffffffffffffffffffffffffffffffff1673ffffffffffffffffffffffffffffffffffffffff16815260200190815260200160002060009054906101000a900460000b600b60003373ffffffffffffffffffffffffffffffffffffffff1673ffffffffffffffffffffffffffffffffffffffff16815260200190815260200160002060009054906101000a900460000b030202600c60008673ffffffffffffffffffffffffffffffffffffffff1673ffffffffffffffffffffffffffffffffffffffff16815260200190815260200160002060009054906101000a900460000b600c60003373ffffffffffffffffffffffffffffffffffffffff1673ffffffffffffffffffffffffffffffffffffffff16815260200190815260200160002060009054906101000a900460000b03600c60008773ffffffffffffffffffffffffffffffffffffffff1673ffffffffffffffffffffffffffffffffffffffff16815260200190815260200160002060009054906101000a900460000b600c60003373ffffffffffffffffffffffffffffffffffffffff1673ffffffffffffffffffffffffffffffffffffffff16815260200190815260200160002060009054906101000a900460000b03020160000b12611c66576040517f08c379a00000000000000000000000000000000000000000000000000000000081526004018080602001828103825260108152602001807f526563656976657220746f6f206661720000000000000000000000000000000081525060200191505060405180910390fd5b611c6f3361282a565b50611c7933611f1c565b50611ccc82601160003373ffffffffffffffffffffffffffffffffffffffff1673ffffffffffffffffffffffffffffffffffffffff1681526020019081526020016000205461332790919063ffffffff16565b601160003373ffffffffffffffffffffffffffffffffffffffff1673ffffffffffffffffffffffffffffffffffffffff1681526020019081526020016000208190555060603384604051602001808373ffffffffffffffffffffffffffffffffffffffff1673ffffffffffffffffffffffffffffffffffffffff1681526020018273ffffffffffffffffffffffffffffffffffffffff1673ffffffffffffffffffffffffffffffffffffffff168152602001925050506040516020818303038152906040529050611e0f836010836040518082805190602001908083835b60208310611dcd5780518252602082019150602081019050602083039250611daa565b6001836020036101000a03801982511681845116808217855250505050505090500191505090815260200160405180910390205461334190919063ffffffff16565b6010826040518082805190602001908083835b60208310611e455780518252602082019150602081019050602083039250611e22565b6001836020036101000a038019825116818451168082178552505050505050905001915050908152602001604051809103902081905550600191505092915050565b60008060009054906101000a900473ffffffffffffffffffffffffffffffffffffffff1673ffffffffffffffffffffffffffffffffffffffff163373ffffffffffffffffffffffffffffffffffffffff1614611ee257600080fd5b81600a60006101000a81548160ff021916908360000b60ff16021790555060019050919050565b600460009054906101000a900460ff1681565b60008062278d00600e60008573ffffffffffffffffffffffffffffffffffffffff1673ffffffffffffffffffffffffffffffffffffffff16815260200190815260200160002054420381611f6c57fe5b0490506000811115611fcc57611f8683600954830261335b565b5042600e60008573ffffffffffffffffffffffffffffffffffffffff1673ffffffffffffffffffffffffffffffffffffffff168152602001908152602001600020819055505b8273ffffffffffffffffffffffffffffffffffffffff167fdd56f2a6b01dd730087e981ba33fb0790f23935222bec35b818133efeb2345ff60095483026040518082815260200191505060405180910390a26001915050919050565b60008060009054906101000a900473ffffffffffffffffffffffffffffffffffffffff1673ffffffffffffffffffffffffffffffffffffffff163373ffffffffffffffffffffffffffffffffffffffff161461208357600080fd5b8160078190555060019050919050565b60008160103385604051602001808373ffffffffffffffffffffffffffffffffffffffff1673ffffffffffffffffffffffffffffffffffffffff1681526020018273ffffffffffffffffffffffffffffffffffffffff1673ffffffffffffffffffffffffffffffffffffffff168152602001925050506040516020818303038152906040526040518082805190602001908083835b6020831061214b5780518252602082019150602081019050602083039250612128565b6001836020036101000a0380198251168184511680821785525050505050509050019150509081526020016040518091039020541015905092915050565b6000601160008373ffffffffffffffffffffffffffffffffffffffff1673ffffffffffffffffffffffffffffffffffffffff168152602001908152602001600020549050919050565b60008060009054906101000a900473ffffffffffffffffffffffffffffffffffffffff1673ffffffffffffffffffffffffffffffffffffffff163373ffffffffffffffffffffffffffffffffffffffff161461222d57600080fd5b81601160008573ffffffffffffffffffffffffffffffffffffffff1673ffffffffffffffffffffffffffffffffffffffff168152602001908152602001600020600082825403925050819055508273ffffffffffffffffffffffffffffffffffffffff167f30385c845b448a36257a6a1716e6ad2e1bc2cbe333cde1e69fe849ad6511adfe836040518082815260200191505060405180910390a26001905092915050565b600160009054906101000a900473ffffffffffffffffffffffffffffffffffffffff1673ffffffffffffffffffffffffffffffffffffffff163373ffffffffffffffffffffffffffffffffffffffff161461232c57600080fd5b600160009054906101000a900473ffffffffffffffffffffffffffffffffffffffff1673ffffffffffffffffffffffffffffffffffffffff166000809054906101000a900473ffffffffffffffffffffffffffffffffffffffff1673ffffffffffffffffffffffffffffffffffffffff167f8be0079c531659141344cd1fd0a4f28419497f9722a3daafe3b4186f6b6457e060405160405180910390a3600160009054906101000a900473ffffffffffffffffffffffffffffffffffffffff166000806101000a81548173ffffffffffffffffffffffffffffffffffffffff021916908373ffffffffffffffffffffffffffffffffffffffff1602179055506000600160006101000a81548173ffffffffffffffffffffffffffffffffffffffff021916908373ffffffffffffffffffffffffffffffffffffffff160217905550565b60008060009054906101000a900473ffffffffffffffffffffffffffffffffffffffff1673ffffffffffffffffffffffffffffffffffffffff163373ffffffffffffffffffffffffffffffffffffffff16146124ca57600080fd5b600460009054906101000a900460ff166124e357600080fd5b6000600460006101000a81548160ff0219169083151502179055507faf79b4370f6af9d950564bbe6b81f7f0834c003c455db9248f4e55e6bf865eb760405160405180910390a16001905090565b6000600e60003373ffffffffffffffffffffffffffffffffffffffff1673ffffffffffffffffffffffffffffffffffffffff16815260200190815260200160002054905090565b600060103383604051602001808373ffffffffffffffffffffffffffffffffffffffff1673ffffffffffffffffffffffffffffffffffffffff1681526020018273ffffffffffffffffffffffffffffffffffffffff1673ffffffffffffffffffffffffffffffffffffffff168152602001925050506040516020818303038152906040526040518082805190602001908083835b6020831061262f578051825260208201915060208101905060208303925061260c565b6001836020036101000a0380198251168184511680821785525050505050509050019150509081526020016040518091039020549050919050565b60028054600181600116156101000203166002900480601f0160208091040260200160405190810160405280929190818152602001828054600181600116156101000203166002900480156127005780601f106126d557610100808354040283529160200191612700565b820191906000526020600020905b8154815290600101906020018083116126e357829003601f168201915b505050505081565b60008060009054906101000a900473ffffffffffffffffffffffffffffffffffffffff1673ffffffffffffffffffffffffffffffffffffffff163373ffffffffffffffffffffffffffffffffffffffff161461276357600080fd5b8160058190555060019050919050565b6000600d60003373ffffffffffffffffffffffffffffffffffffffff1673ffffffffffffffffffffffffffffffffffffffff16815260200190815260200160002054905090565b60006040517f08c379a000000000000000000000000000000000000000000000000000000000815260040180806020018281038252600b8152602001807f4e6f7420616c6c6f77656400000000000000000000000000000000000000000081525060200191505060405180910390fd5b600080600f60008473ffffffffffffffffffffffffffffffffffffffff1673ffffffffffffffffffffffffffffffffffffffff16815260200190815260200160002054141561287c5760019050612a57565b60006301e13380600f60008573ffffffffffffffffffffffffffffffffffffffff1673ffffffffffffffffffffffffffffffffffffffff168152602001908152602001600020544203816128cc57fe5b0490506000811115612a5157600081600854029050601160008573ffffffffffffffffffffffffffffffffffffffff1673ffffffffffffffffffffffffffffffffffffffff1681526020019081526020016000205481111561296b57601160008573ffffffffffffffffffffffffffffffffffffffff1673ffffffffffffffffffffffffffffffffffffffff1681526020019081526020016000205490505b612975848261335b565b50816301e1338002600f60008673ffffffffffffffffffffffffffffffffffffffff1673ffffffffffffffffffffffffffffffffffffffff1681526020019081526020016000205401600f60008673ffffffffffffffffffffffffffffffffffffffff1673ffffffffffffffffffffffffffffffffffffffff168152602001908152602001600020819055508373ffffffffffffffffffffffffffffffffffffffff167f4daedca3f30b013a0a1214269e7bb3b20637e8a1b70906a0f826d70abf4edcc4826040518082815260200191505060405180910390a2505b60019150505b919050565b600060075460065402905090565b60008060009054906101000a900473ffffffffffffffffffffffffffffffffffffffff1673ffffffffffffffffffffffffffffffffffffffff163373ffffffffffffffffffffffffffffffffffffffff1614612ac557600080fd5b8160098190555060019050919050565b6000600f60003373ffffffffffffffffffffffffffffffffffffffff1673ffffffffffffffffffffffffffffffffffffffff16815260200190815260200160002054905090565b6000601260008473ffffffffffffffffffffffffffffffffffffffff1673ffffffffffffffffffffffffffffffffffffffff16815260200190815260200160002054905092915050565b6000600460009054906101000a900460ff16612b8157600080fd5b600034118015612b9c575060006007543481612b9957fe5b06145b612bf1576040517f08c379a00000000000000000000000000000000000000000000000000000000081526004018080602001828103825260258152602001806134026025913960400191505060405180910390fd5b60006007543481612bfe57fe5b0490506000600e60003373ffffffffffffffffffffffffffffffffffffffff1673ffffffffffffffffffffffffffffffffffffffff16815260200190815260200160002054148015612c51575060065481145b612cc3576040517f08c379a000000000000000000000000000000000000000000000000000000000815260040180806020018281038252601d8152602001807f496e636f72726563742066756e642e2053656520656e726f6c436f737400000081525060200191505060405180910390fd5b6000809054906101000a900473ffffffffffffffffffffffffffffffffffffffff1673ffffffffffffffffffffffffffffffffffffffff166108fc349081150290604051600060405180830381858888f19350505050158015612d2a573d6000803e3d6000fd5b5083600b60003373ffffffffffffffffffffffffffffffffffffffff1673ffffffffffffffffffffffffffffffffffffffff16815260200190815260200160002060006101000a81548160ff021916908360000b60ff16021790555082600c60003373ffffffffffffffffffffffffffffffffffffffff1673ffffffffffffffffffffffffffffffffffffffff16815260200190815260200160002060006101000a81548160ff021916908360000b60ff16021790555042600f60003373ffffffffffffffffffffffffffffffffffffffff1673ffffffffffffffffffffffffffffffffffffffff168152602001908152602001600020819055600e60003373ffffffffffffffffffffffffffffffffffffffff1673ffffffffffffffffffffffffffffffffffffffff168152602001908152602001600020819055506000600d60003373ffffffffffffffffffffffffffffffffffffffff1673ffffffffffffffffffffffffffffffffffffffff16815260200190815260200160002081905550612eb833600554610e85565b5080601160003373ffffffffffffffffffffffffffffffffffffffff1673ffffffffffffffffffffffffffffffffffffffff168152602001908152602001600020600082825401925050819055503373ffffffffffffffffffffffffffffffffffffffff167f30385c845b448a36257a6a1716e6ad2e1bc2cbe333cde1e69fe849ad6511adfe826040518082815260200191505060405180910390a2600191505092915050565b600061305c8260108533604051602001808373ffffffffffffffffffffffffffffffffffffffff1673ffffffffffffffffffffffffffffffffffffffff1681526020018273ffffffffffffffffffffffffffffffffffffffff1673ffffffffffffffffffffffffffffffffffffffff168152602001925050506040516020818303038152906040526040518082805190602001908083835b6020831061301a5780518252602082019150602081019050602083039250612ff7565b6001836020036101000a03801982511681845116808217855250505050505090500191505090815260200160405180910390205461332790919063ffffffff16565b506001905092915050565b6000809054906101000a900473ffffffffffffffffffffffffffffffffffffffff1673ffffffffffffffffffffffffffffffffffffffff166108fc349081150290604051600060405180830381858888f193505050501580156130ce573d6000803e3d6000fd5b503373ffffffffffffffffffffffffffffffffffffffff167f2a01595cddf097c90216094025db714da3f4e5bd8877b56ba86a24ecead8e543346040518082815260200191505060405180910390a2565b6000809054906101000a900473ffffffffffffffffffffffffffffffffffffffff1673ffffffffffffffffffffffffffffffffffffffff163373ffffffffffffffffffffffffffffffffffffffff161461317857600080fd5b80600160006101000a81548173ffffffffffffffffffffffffffffffffffffffff021916908373ffffffffffffffffffffffffffffffffffffffff16021790555050565b60008060009054906101000a900473ffffffffffffffffffffffffffffffffffffffff1673ffffffffffffffffffffffffffffffffffffffff163373ffffffffffffffffffffffffffffffffffffffff161461321757600080fd5b8160068190555060019050919050565b60008060009054906101000a900473ffffffffffffffffffffffffffffffffffffffff1673ffffffffffffffffffffffffffffffffffffffff163373ffffffffffffffffffffffffffffffffffffffff161461328257600080fd5b81601160008573ffffffffffffffffffffffffffffffffffffffff1673ffffffffffffffffffffffffffffffffffffffff168152602001908152602001600020600082825401925050819055508273ffffffffffffffffffffffffffffffffffffffff167f30385c845b448a36257a6a1716e6ad2e1bc2cbe333cde1e69fe849ad6511adfe836040518082815260200191505060405180910390a26001905092915050565b60008282111561333657600080fd5b818303905092915050565b600081830190508281101561335557600080fd5b92915050565b600081600d60008573ffffffffffffffffffffffffffffffffffffffff1673ffffffffffffffffffffffffffffffffffffffff1681526020019081526020016000206000828254019250508190555081601160008573ffffffffffffffffffffffffffffffffffffffff1673ffffffffffffffffffffffffffffffffffffffff16815260200190815260200160002060008282540392505081905550600190509291505056fe496e73756666696369656e742066756e64206f72206e6f74204578616374206368616e6765496e636f72726563742066756e642e204d757374203d207461786564282920782065786368616e676520776569a26469706673582212205d1b66cc20f27a0a4c7d0428e92312c01ebb47aba620ccc47c11ac76d6ac8f2b64736f6c634300060600334120636f6d6d756e69747920736b696c6c732065786368616e676520746f6b656e",
  "immutableReferences": {},
  "source": "pragma solidity >=0.4.22 <0.7.0;\n\n//SPDX-License-Identifier: MIT\n//----------------------------------------------------------------------------\n//'HUJO COIN' A community services exchange token contract\n//\n//Symbol      : HUJO\n//Name        : A community service exchange token\n//\n//(c) Daniel 'Kikiio' Leung | Kikiio.com 2020. The MIT Licence.\n//----------------------------------------------------------------------------\n\n\n//----------------------------------------------------------------------------\n//Safe maths\n//----------------------------------------------------------------------------\nlibrary SafeMath {\n function add(uint a, uint b) internal pure returns (uint c) {\n     c = a + b;\n     require(c >= a);\n }\n function sub(uint a, uint b) internal pure returns (uint c) {\n     require(b <= a);\n     c = a - b;\n }\n function mul(uint a, uint b) internal pure returns (uint c) {\n     c = a * b;\n     require(a == 0 || c / a == b);\n }\n function div(uint a, uint b) internal pure returns (uint c) {\n     require(b > 0);\n     c = a / b;\n }\n}\n\n\n//----------------------------------------------------------------------------\n//ERC Token Standard #20 Interface\n//https://github.com/ethereum/EIPs/blob/master/EIPS/eip-20.md\n//----------------------------------------------------------------------------\nabstract contract ERC20Interface {\n function totalSupply() public virtual view returns (uint);\n function balanceOf(address tokenOwner) public virtual view returns (uint balance);\n function allowance(address tokenOwner, address spender) public virtual view returns (uint remaining);\n function transfer(address to, uint tokens) public virtual returns (bool success);\n function approve(address spender, uint tokens) public virtual returns (bool success);\n function transferFrom(address from, address to, uint tokens) public virtual returns (bool success);\n\n event Transfer(address indexed from, address indexed to, uint tokens);\n event Approval(address indexed tokenOwner, address indexed spender, uint tokens);\n}\n\n\n//----------------------------------------------------------------------------\n//Contract function to receive approval and execute function in one call\n//\n//Borrowed from MiniMeToken\n//----------------------------------------------------------------------------\nabstract contract ApproveAndCallFallBack {\n function receiveApproval(address from, uint256 tokens, address token, bytes memory data) public virtual;\n}\n\n\n//----------------------------------------------------------------------------\n//Owned contract\n//----------------------------------------------------------------------------\ncontract Owned {\n address payable internal owner;\n address payable private newOwner;\n\n event OwnershipTransferred(address payable indexed _from, address payable indexed _to);\n\n constructor() public {\n     owner = msg.sender;\n }\n\n modifier onlyOwner {\n     require(msg.sender == owner);\n     _;\n }\n\n function transferOwnership(address payable _newOwner) public onlyOwner {\n     newOwner = _newOwner;\n }\n function acceptOwnership() public {\n     require(msg.sender == newOwner);\n     emit OwnershipTransferred(owner, newOwner);\n     owner = newOwner;\n     newOwner = address(0);\n }\n}\n\n\n\n//----------------------------------------------------------------------------\n//ERC20 Token, with the addition of symbol, name and decimals and a\n//Hujo\n//----------------------------------------------------------------------------\ncontract HujoCoin is ERC20Interface, Owned {\n\tusing SafeMath for uint;\n\t\n\t//TODO try shorten names to see effects on size\n\t\n\tstring public symbol;\n    string public name;\n    bool public mintable; //TODO combine with other booleans to save gas\n    uint _maxBalance;\n    uint _initialBalance;\n    uint _exchange;\n    uint _annualTax;\n    uint _idleTax;\n    int8 _maxDistancePoint;\n    mapping(address => int8) roundedLongs;\n    mapping(address => int8) roundedLats;\n    mapping(address => uint) taxedAmounts;\n    mapping(address => uint) lastTransactionDates;\n    mapping(address => uint) lastTaxedDates;\n    mapping(bytes => uint) promises;\n    mapping(address => uint) balances;\n    mapping(address => uint) allowed;\n    event MintingDisabled();\n    event Minted(address indexed _to, uint _value);\n    event Minced(address indexed _from, uint _value);\n    event AnnualTaxDeducted(address indexed _to, uint _value);\n    event IdleTaxDeducted(address indexed _to, uint _value);\n    event Donated(address indexed _from, uint _value);\n    \n    // ------------------------------------------------------------------------\n    // Constructor\n    // ------------------------------------------------------------------------\n    constructor() public {\n        symbol = \"HUJO\";\n        name = \"A community skills exchange token\";\n        mintable = true;\n        _maxBalance = 20; //Tokens\n        _initialBalance = 10; // Tokens\n        _annualTax = 5;\n        _idleTax = 1; //monthly\n        _exchange = 750000000000000; //Wei - Initial exchange = 0.00075 Eth ~ 25 cents CDN\n        _maxDistancePoint = 4; //~100km\n    }\n    \n\n    function setMaxBalance(uint balance) onlyOwner external returns (bool success) {\n    \t_maxBalance = balance;\n    \treturn true;\n    }\n    \n    \n    function setInitialBalance(uint balance) onlyOwner external returns (bool success) {\n    \t_initialBalance = balance;\n    \treturn true;\n    }\n    \n    \n    function setAnnualTax(uint tax) onlyOwner external returns (bool success) {\n    \t_annualTax = tax;\n    \treturn true;\n    }\n    \n    \n    function setIdleTax(uint tax) onlyOwner external returns (bool success) {\n    \t_idleTax = tax;\n    \treturn true;\n    }\n    \n    \n    function setMaxDistancePoint(int8 distancePoint) onlyOwner external returns (bool success) {\n    \t_maxDistancePoint = distancePoint;\n    \treturn true;\n    }\n    \n    \n    //update the exchange rate\n    function setExchange(uint exchange) onlyOwner external returns (bool success) {\n    \t_exchange = exchange;\n    \treturn true;\n    }\n\n    \n    function disableMinting() onlyOwner external returns (bool success) {\n    \trequire(mintable);\n    \tmintable = false;\n    \temit MintingDisabled();\n    \treturn true;\n    }\n    \n    \n    /**\n     * - Entry point for new account\n     * - Amount must equal initialBalance\n     */    \n    function mintEnrol(int8 roundedLong, int8 roundedLat) external payable returns (bool success) {\n    \trequire(mintable);\n    \trequire(\n    \t\tmsg.value > 0 && msg.value % _exchange == 0, \n\t\t\t\"Insufficient fund or not Exact change\"\n\t\t);\n    \tuint tokens = msg.value / _exchange; \n    \trequire(\n    \t\tlastTransactionDates[msg.sender] == 0 && tokens == _initialBalance, \n\t\t\t\"Incorrect fund. See enrolCost\"\n\t\t); \n    \t\n    \towner.transfer(msg.value);\n    \t\n    \t//TODO can these combined into one int8?\n    \t//TODO can these be uint8? eg if > 1000 then treat as -ve? but will need conversion? conversion is expensive too.\n    \troundedLongs[msg.sender] = roundedLong;\n    \troundedLats[msg.sender] = roundedLat;\n    \t\n    \tlastTransactionDates[msg.sender] = lastTaxedDates[msg.sender] = now;\n    \ttaxedAmounts[msg.sender] = 0;\n\n    \t//Pre approve to max balance\n    \tapprove(msg.sender, _maxBalance);\n    \t\n    \tbalances[msg.sender] += tokens;\n    \t\n    \temit Minted(msg.sender, tokens);\n    \t\n    \treturn true;\n    }\n    \n    \n    /**\n     * - Can mint the taxed amount or less\n     * - For existing user only\n     */\n    function mint() external payable returns (bool success) {\n    \trequire(mintable);\n    \trequire(\n    \t\tmsg.value > 0 && msg.value % _exchange == 0, \n\t\t\t\"Insufficient fund or not Exact change\"\n\t\t);\n    \tuint tokens = msg.value / _exchange; \n    \trequire(\n\t\t\tlastTransactionDates[msg.sender] > 0 && tokens <= taxedAmounts[msg.sender],\n\t\t\t\"Incorrect fund. Must = taxed() x exchange wei\"\n\t\t); \n    \t\n    \towner.transfer(msg.value);\n\n    \tlastTransactionDates[msg.sender] = lastTaxedDates[msg.sender] = now;\n    \ttaxedAmounts[msg.sender] = 0;\n    \t\n    \tbalances[msg.sender] += tokens;\n\n    \temit Minted(msg.sender, tokens);\n    \t\n    \treturn true;\n    }\n    \n    \n    /**\n     * Returns wei required to join \n     */\n    function enrolCost() external view returns (uint amount) {\n    \treturn _initialBalance * _exchange;\n    }\n    \n    \n    /**\n     * Returns wei of currently taxed \n     */\n    function topupCost() external view returns (uint amount) {\n    \treturn taxedAmounts[msg.sender] * _exchange;\n    }\n    \n    \n    /**\n     * Returns exchange rate\n     */\n    function exchangeRate() external view returns (uint amount) {\n    \treturn _exchange;\n    }\n    \n    \n    /**\n     * For extremem cases, owner can mint any amount of tokens to a user\n     */\n    function mintAny(address to, uint tokens) onlyOwner public returns (bool success) {\n    \tbalances[to] += tokens;\n    \temit Minted(to, tokens);\n        return true;\n    }\n    \n    \n    /**\n     * Opposite of mintAny - destroy any amount of tokens from a user\n     */\n    function minceAny(address from, uint tokens) onlyOwner public returns (bool success) {\n    \tbalances[from] -= tokens;\n    \temit Minted(from, tokens);\n        return true;\n    }\n    \n    \n    function tax(address taxPayer, uint tokens) internal returns (bool success) {\n    \ttaxedAmounts[taxPayer] += tokens;\n        balances[taxPayer] -= tokens;\n        return true;\n    }\n    \n    \n    /**\n     * AKA system fee \n     */\n    function annualTax(address taxPayer) public returns (bool success) {\n    \tif (lastTaxedDates[taxPayer] == 0) {\n    \t    return true;\n    \t} \n    \t\n    \tuint numYrPass = (now - lastTaxedDates[taxPayer]) / (365 days);\n    \tif (numYrPass > 0) {\n    \t\tuint taxAmount = _annualTax * numYrPass;\n    \t\tif (taxAmount > balances[taxPayer]) {\n    \t\t\ttaxAmount = balances[taxPayer];\n    \t\t}\n    \t\ttax(taxPayer, taxAmount);\n        \tlastTaxedDates[taxPayer] = lastTaxedDates[taxPayer] + (365 days) * numYrPass;\n        \temit AnnualTaxDeducted(taxPayer, taxAmount);\t\n    \t}\n    \t\n    \treturn true;\n    }\n    \n    \n    function idleTax(address taxPayer) public returns (bool success) {\n    \tuint monthsIdled = (now - lastTransactionDates[taxPayer]) / 30 days;\n    \tif (monthsIdled > 0) {\n    \t\ttax(taxPayer, monthsIdled * _idleTax);\n    \t\tlastTransactionDates[taxPayer] = now;\n    \t}\n    \temit IdleTaxDeducted(taxPayer, monthsIdled * _idleTax);\n    \treturn true;\n    }\n    \n    \n    function taxed() external view returns (uint tokens) {\n    \treturn taxedAmounts[msg.sender];\n    }\n    \n    \n    // ------------------------------------------------------------------------\n    // Total supply\n    // ------------------------------------------------------------------------\n    function totalSupply() public override view returns (uint) {\n        //return _totalSupply.sub(balances[address(0)]);\n    \treturn 0;\n    }\n    \n    \n    // ------------------------------------------------------------------------\n    // Get the token balance for account `tokenOwner`\n    // ------------------------------------------------------------------------\n    function balanceOf(address tokenOwner) public override view returns (uint balance) {\n    \treturn balances[tokenOwner];\n    }\n\n    \n    function getLastTransactionDate() external view returns (uint lastTransactionDate) {\n    \treturn lastTransactionDates[msg.sender];\n    }\n    \n    \n    function getLastTaxedDate() external view returns (uint lastTaxedDate) {\n    \treturn lastTaxedDates[msg.sender];\n    }\n\n    \n    // ------------------------------------------------------------------------\n    // Transfer the balance from token owner's account to `to` account\n    // - Owner's account must have sufficient balance to transfer\n    // - 0 value transfers are allowed\n    // ------------------------------------------------------------------------\n    function transfer(address to, uint tokens) public override returns (bool success) {\n    \trevert('Not allowed');\n    \t//return true;\n    \t\n    \t//balances[msg.sender] = balances[msg.sender].sub(tokens);\n        //balances[to] = balances[to].add(tokens);\n        //emit Transfer(msg.sender, to, tokens);\n        //return true;\n    }\n\n\n    /**\n     * Called only once when account initiated\n     */\n    // ------------------------------------------------------------------------\n    // Token owner can approve for `spender` to transferFrom(...) `tokens`\n    // from the token owner's account\n    //\n    // https://github.com/ethereum/EIPs/blob/master/EIPS/eip-20-token-standard.md\n    // recommends that there are no checks for the approval double-spend attack\n    // as this should be implemented in user interfaces\n    // ------------------------------------------------------------------------\n    function approve(address spender, uint tokens) public override returns (bool success) {\n    \t//TODO disregard receiver and change approveAndCall\n    \t\n    \tallowed[msg.sender] = tokens;\n        emit Approval(msg.sender, spender, tokens);\n        return true;\n    }\n\n    \n    // ------------------------------------------------------------------------\n    // Sender promises to transfer `tokens` from the `from` account to the `to` account\n    // Balance are essentially held on contract until transferFrom() is called\n    // or promiseCancel() is called.\n    //\n    // This is differs from ERC20's approve() as this is a mechanism \n    // acting as a trust to ensure payer has sufficient fund to pay at a later time \n    //\n    // The calling account must have sufficient tokens in balance\n    // - Sender must have sufficient balance to promise for transfer\n    // - 0 value transfers are allowed\n    // ------------------------------------------------------------------------\n    function promiseTo(address to, uint tokens) public returns (bool success) {\n    \trequire(allowed[msg.sender] >= tokens, \"Not approved\");\n    \trequire(balances[to] + tokens <= _maxBalance, \"Reciever over-balanced\");\n    \trequire(roundedLongs[msg.sender] != 0, \"Sender not registered\");\n    \trequire(roundedLongs[to] != 0, \"Receiver not registered\");\n    \t//Taken from https://stackoverflow.com/questions/6548940/sql-distance-query-without-trigonometry\n    \trequire(\n\t\t\t(\n\t\t\t\t(roundedLats[msg.sender] - roundedLats[to]) * \n\t\t\t\t(roundedLats[msg.sender] - roundedLats[to]) + \n\t\t\t\t((roundedLongs[msg.sender] - roundedLongs[to]) * 2) * \n\t\t\t\t((roundedLongs[msg.sender] - roundedLongs[to]) * 2)\n\t\t\t) < _maxDistancePoint,\n\t\t\t\"Receiver too far\"\n\t\t);\n    \tannualTax(msg.sender);\n    \tidleTax(msg.sender);\n    \t//TODO Is this necessary rather than using safeMath for tax not to be reverted\n    \t//assert(balances[from] - tokens > 0, \"Not sufficient fund\");\n    \t\n    \tbalances[msg.sender] = balances[msg.sender].sub(tokens);\n    \tbytes memory addressesHash = abi.encode(msg.sender, to);\n    \tpromises[addressesHash] = promises[addressesHash].add(tokens);\n        return true;\n    }\n\n\n    // ------------------------------------------------------------------------\n    // Returns True when tokens is within promised \n    // ------------------------------------------------------------------------\n    function hasPromise(address to, uint tokens) public view returns (bool success) {\n    \treturn promises[abi.encode(msg.sender, to)] >= tokens;\n    }\n    \n    \n    // ------------------------------------------------------------------------\n    // Returns the number of tokens 'from' promised to 'to'  \n    // ------------------------------------------------------------------------\n    function promisedTo(address to) public view returns (uint tokens) {\n    \treturn promises[abi.encode(msg.sender, to)];\n    }\n    \n    \n    // ------------------------------------------------------------------------\n    // Sender releases a promise by payer to transfer tokens\n    // All values must equal originally promised for confirmation.\n    // ------------------------------------------------------------------------\n    function releasePromise(address from, uint tokens) public returns (bool success) {\n    \tpromises[abi.encode(from, msg.sender)].sub(tokens);\n    \treturn true;\n    }\n    \n    \n    // ------------------------------------------------------------------------\n    // Transfer `tokens` from the `from` account to the `to` account\n    // All values must agree with record in the Promise for confirmation.\n    // Also behaviour deviates from that intended in ERC20 in that \n    // it only allows sender (from) to call\n    // ------------------------------------------------------------------------\n    function transferFrom(address from, address to, uint tokens) public override returns (bool success) {\n    \trequire(msg.sender == from, \"Sender is not 'from'\");\n    \tbytes memory addressesHash = abi.encode(from, to);\n    \tpromises[addressesHash] = promises[addressesHash].sub(tokens);\n        balances[to] = balances[to].add(tokens);\n        emit Transfer(from, to, tokens);\n        return true;\n    }\n\n\n    // ------------------------------------------------------------------------\n    // Returns the amount of tokens approved by the owner that can be\n    // transferred to the spender's account\n    // ------------------------------------------------------------------------\n    function allowance(address tokenOwner, address spender) public override view returns (uint remaining) {\n    \treturn allowed[tokenOwner];\n    }\n\n    \n    // ------------------------------------------------------------------------\n    // Donation to owner\n    // ------------------------------------------------------------------------\n    function donate() external payable {\n    \towner.transfer(msg.value);\n    \temit Donated(msg.sender, msg.value);\n    }   \n    \n    fallback() external {\n    \trevert('Function not found');\n    }\n}",
  "sourcePath": "/Users/leyond/Documents/workspace_62/hujoCoin/contracts/HujoCoin.sol",
  "compiler": {
    "name": "solc",
    "version": "0.6.6+commit.6c089d02.Emscripten.clang"
  },
  "schemaVersion": "3.1.0",
  "updatedAt": "2020-08-25T19:55:40.232Z",
  "networkType": "ethereum",
  "devdoc": {
    "methods": {}
  },
  "userdoc": {
    "methods": {
      "annualTax(address)": {
        "notice": "AKA system fee "
      },
      "approve(address,uint256)": {
        "notice": "Called only once when account initiated"
      },
      "enrolCost()": {
        "notice": "Returns wei required to join "
      },
      "exchangeRate()": {
        "notice": "Returns exchange rate"
      },
      "minceAny(address,uint256)": {
        "notice": "Opposite of mintAny - destroy any amount of tokens from a user"
      },
      "mint()": {
        "notice": "- Can mint the taxed amount or less - For existing user only"
      },
      "mintAny(address,uint256)": {
        "notice": "For extremem cases, owner can mint any amount of tokens to a user"
      },
      "mintEnrol(int8,int8)": {
        "notice": "- Entry point for new account - Amount must equal initialBalance"
      },
      "topupCost()": {
        "notice": "Returns wei of currently taxed "
      }
    }
  }
}