{
  "contractName": "HujoCoin",
  "abi": [
    {
      "inputs": [],
      "stateMutability": "nonpayable",
      "type": "constructor"
    },
    {
      "anonymous": false,
      "inputs": [
        {
          "indexed": true,
          "internalType": "address",
          "name": "_to",
          "type": "address"
        },
        {
          "indexed": false,
          "internalType": "uint256",
          "name": "_value",
          "type": "uint256"
        }
      ],
      "name": "AnnualTaxDeducted",
      "type": "event"
    },
    {
      "anonymous": false,
      "inputs": [
        {
          "indexed": true,
          "internalType": "address",
          "name": "tokenOwner",
          "type": "address"
        },
        {
          "indexed": true,
          "internalType": "address",
          "name": "spender",
          "type": "address"
        },
        {
          "indexed": false,
          "internalType": "uint256",
          "name": "tokens",
          "type": "uint256"
        }
      ],
      "name": "Approval",
      "type": "event"
    },
    {
      "anonymous": false,
      "inputs": [
        {
          "indexed": true,
          "internalType": "address",
          "name": "_from",
          "type": "address"
        },
        {
          "indexed": false,
          "internalType": "uint256",
          "name": "_value",
          "type": "uint256"
        }
      ],
      "name": "Donated",
      "type": "event"
    },
    {
      "anonymous": false,
      "inputs": [
        {
          "indexed": true,
          "internalType": "address",
          "name": "_to",
          "type": "address"
        },
        {
          "indexed": false,
          "internalType": "uint256",
          "name": "_value",
          "type": "uint256"
        }
      ],
      "name": "IdleTaxDeducted",
      "type": "event"
    },
    {
      "anonymous": false,
      "inputs": [
        {
          "indexed": true,
          "internalType": "address",
          "name": "_from",
          "type": "address"
        },
        {
          "indexed": false,
          "internalType": "uint256",
          "name": "_value",
          "type": "uint256"
        }
      ],
      "name": "Minced",
      "type": "event"
    },
    {
      "anonymous": false,
      "inputs": [
        {
          "indexed": true,
          "internalType": "address",
          "name": "_to",
          "type": "address"
        },
        {
          "indexed": false,
          "internalType": "uint256",
          "name": "_value",
          "type": "uint256"
        }
      ],
      "name": "Minted",
      "type": "event"
    },
    {
      "anonymous": false,
      "inputs": [],
      "name": "MintingDisabled",
      "type": "event"
    },
    {
      "anonymous": false,
      "inputs": [
        {
          "indexed": true,
          "internalType": "address payable",
          "name": "_from",
          "type": "address"
        },
        {
          "indexed": true,
          "internalType": "address payable",
          "name": "_to",
          "type": "address"
        }
      ],
      "name": "OwnershipTransferred",
      "type": "event"
    },
    {
      "anonymous": false,
      "inputs": [
        {
          "indexed": true,
          "internalType": "address",
          "name": "from",
          "type": "address"
        },
        {
          "indexed": true,
          "internalType": "address",
          "name": "to",
          "type": "address"
        },
        {
          "indexed": false,
          "internalType": "uint256",
          "name": "tokens",
          "type": "uint256"
        }
      ],
      "name": "Transfer",
      "type": "event"
    },
    {
      "stateMutability": "nonpayable",
      "type": "fallback"
    },
    {
      "inputs": [],
      "name": "acceptOwnership",
      "outputs": [],
      "stateMutability": "nonpayable",
      "type": "function"
    },
    {
      "inputs": [],
      "name": "mintable",
      "outputs": [
        {
          "internalType": "bool",
          "name": "",
          "type": "bool"
        }
      ],
      "stateMutability": "view",
      "type": "function",
      "constant": true
    },
    {
      "inputs": [],
      "name": "name",
      "outputs": [
        {
          "internalType": "string",
          "name": "",
          "type": "string"
        }
      ],
      "stateMutability": "view",
      "type": "function",
      "constant": true
    },
    {
      "inputs": [],
      "name": "symbol",
      "outputs": [
        {
          "internalType": "string",
          "name": "",
          "type": "string"
        }
      ],
      "stateMutability": "view",
      "type": "function",
      "constant": true
    },
    {
      "inputs": [
        {
          "internalType": "address payable",
          "name": "_newOwner",
          "type": "address"
        }
      ],
      "name": "transferOwnership",
      "outputs": [],
      "stateMutability": "nonpayable",
      "type": "function"
    },
    {
      "inputs": [
        {
          "internalType": "uint256",
          "name": "balance",
          "type": "uint256"
        }
      ],
      "name": "setMaxBalance",
      "outputs": [
        {
          "internalType": "bool",
          "name": "success",
          "type": "bool"
        }
      ],
      "stateMutability": "nonpayable",
      "type": "function"
    },
    {
      "inputs": [
        {
          "internalType": "uint256",
          "name": "balance",
          "type": "uint256"
        }
      ],
      "name": "setInitialBalance",
      "outputs": [
        {
          "internalType": "bool",
          "name": "success",
          "type": "bool"
        }
      ],
      "stateMutability": "nonpayable",
      "type": "function"
    },
    {
      "inputs": [
        {
          "internalType": "uint256",
          "name": "tax",
          "type": "uint256"
        }
      ],
      "name": "setAnnualTax",
      "outputs": [
        {
          "internalType": "bool",
          "name": "success",
          "type": "bool"
        }
      ],
      "stateMutability": "nonpayable",
      "type": "function"
    },
    {
      "inputs": [
        {
          "internalType": "uint256",
          "name": "tax",
          "type": "uint256"
        }
      ],
      "name": "setIdleTax",
      "outputs": [
        {
          "internalType": "bool",
          "name": "success",
          "type": "bool"
        }
      ],
      "stateMutability": "nonpayable",
      "type": "function"
    },
    {
      "inputs": [
        {
          "internalType": "int8",
          "name": "distancePoint",
          "type": "int8"
        }
      ],
      "name": "setMaxDistancePoint",
      "outputs": [
        {
          "internalType": "bool",
          "name": "success",
          "type": "bool"
        }
      ],
      "stateMutability": "nonpayable",
      "type": "function"
    },
    {
      "inputs": [
        {
          "internalType": "uint256",
          "name": "exchange",
          "type": "uint256"
        }
      ],
      "name": "setExchange",
      "outputs": [
        {
          "internalType": "bool",
          "name": "success",
          "type": "bool"
        }
      ],
      "stateMutability": "nonpayable",
      "type": "function"
    },
    {
      "inputs": [],
      "name": "disableMinting",
      "outputs": [
        {
          "internalType": "bool",
          "name": "success",
          "type": "bool"
        }
      ],
      "stateMutability": "nonpayable",
      "type": "function"
    },
    {
      "inputs": [
        {
          "internalType": "int8",
          "name": "roundedLong",
          "type": "int8"
        },
        {
          "internalType": "int8",
          "name": "roundedLat",
          "type": "int8"
        }
      ],
      "name": "mintEnrol",
      "outputs": [
        {
          "internalType": "bool",
          "name": "success",
          "type": "bool"
        }
      ],
      "stateMutability": "payable",
      "type": "function",
      "payable": true
    },
    {
      "inputs": [],
      "name": "mint",
      "outputs": [
        {
          "internalType": "bool",
          "name": "success",
          "type": "bool"
        }
      ],
      "stateMutability": "payable",
      "type": "function",
      "payable": true
    },
    {
      "inputs": [],
      "name": "enrolCost",
      "outputs": [
        {
          "internalType": "uint256",
          "name": "amount",
          "type": "uint256"
        }
      ],
      "stateMutability": "view",
      "type": "function",
      "constant": true
    },
    {
      "inputs": [],
      "name": "topupCost",
      "outputs": [
        {
          "internalType": "uint256",
          "name": "amount",
          "type": "uint256"
        }
      ],
      "stateMutability": "view",
      "type": "function",
      "constant": true
    },
    {
      "inputs": [],
      "name": "exchangeRate",
      "outputs": [
        {
          "internalType": "uint256",
          "name": "amount",
          "type": "uint256"
        }
      ],
      "stateMutability": "view",
      "type": "function",
      "constant": true
    },
    {
      "inputs": [
        {
          "internalType": "address",
          "name": "to",
          "type": "address"
        },
        {
          "internalType": "uint256",
          "name": "tokens",
          "type": "uint256"
        }
      ],
      "name": "mintAny",
      "outputs": [
        {
          "internalType": "bool",
          "name": "success",
          "type": "bool"
        }
      ],
      "stateMutability": "nonpayable",
      "type": "function"
    },
    {
      "inputs": [
        {
          "internalType": "address",
          "name": "from",
          "type": "address"
        },
        {
          "internalType": "uint256",
          "name": "tokens",
          "type": "uint256"
        }
      ],
      "name": "minceAny",
      "outputs": [
        {
          "internalType": "bool",
          "name": "success",
          "type": "bool"
        }
      ],
      "stateMutability": "nonpayable",
      "type": "function"
    },
    {
      "inputs": [
        {
          "internalType": "address",
          "name": "taxPayer",
          "type": "address"
        }
      ],
      "name": "annualTax",
      "outputs": [
        {
          "internalType": "bool",
          "name": "success",
          "type": "bool"
        }
      ],
      "stateMutability": "nonpayable",
      "type": "function"
    },
    {
      "inputs": [
        {
          "internalType": "address",
          "name": "taxPayer",
          "type": "address"
        }
      ],
      "name": "idleTax",
      "outputs": [
        {
          "internalType": "bool",
          "name": "success",
          "type": "bool"
        }
      ],
      "stateMutability": "nonpayable",
      "type": "function"
    },
    {
      "inputs": [],
      "name": "taxed",
      "outputs": [
        {
          "internalType": "uint256",
          "name": "tokens",
          "type": "uint256"
        }
      ],
      "stateMutability": "view",
      "type": "function",
      "constant": true
    },
    {
      "inputs": [],
      "name": "totalSupply",
      "outputs": [
        {
          "internalType": "uint256",
          "name": "",
          "type": "uint256"
        }
      ],
      "stateMutability": "view",
      "type": "function",
      "constant": true
    },
    {
      "inputs": [
        {
          "internalType": "address",
          "name": "tokenOwner",
          "type": "address"
        }
      ],
      "name": "balanceOf",
      "outputs": [
        {
          "internalType": "uint256",
          "name": "balance",
          "type": "uint256"
        }
      ],
      "stateMutability": "view",
      "type": "function",
      "constant": true
    },
    {
      "inputs": [
        {
          "internalType": "address",
          "name": "to",
          "type": "address"
        },
        {
          "internalType": "uint256",
          "name": "tokens",
          "type": "uint256"
        }
      ],
      "name": "transfer",
      "outputs": [
        {
          "internalType": "bool",
          "name": "success",
          "type": "bool"
        }
      ],
      "stateMutability": "nonpayable",
      "type": "function"
    },
    {
      "inputs": [
        {
          "internalType": "address",
          "name": "spender",
          "type": "address"
        },
        {
          "internalType": "uint256",
          "name": "tokens",
          "type": "uint256"
        }
      ],
      "name": "approve",
      "outputs": [
        {
          "internalType": "bool",
          "name": "success",
          "type": "bool"
        }
      ],
      "stateMutability": "nonpayable",
      "type": "function"
    },
    {
      "inputs": [
        {
          "internalType": "address",
          "name": "from",
          "type": "address"
        },
        {
          "internalType": "address",
          "name": "to",
          "type": "address"
        },
        {
          "internalType": "uint256",
          "name": "tokens",
          "type": "uint256"
        }
      ],
      "name": "transferFrom",
      "outputs": [
        {
          "internalType": "bool",
          "name": "success",
          "type": "bool"
        }
      ],
      "stateMutability": "nonpayable",
      "type": "function"
    },
    {
      "inputs": [
        {
          "internalType": "address",
          "name": "tokenOwner",
          "type": "address"
        },
        {
          "internalType": "address",
          "name": "spender",
          "type": "address"
        }
      ],
      "name": "allowance",
      "outputs": [
        {
          "internalType": "uint256",
          "name": "remaining",
          "type": "uint256"
        }
      ],
      "stateMutability": "view",
      "type": "function",
      "constant": true
    },
    {
      "inputs": [],
      "name": "donate",
      "outputs": [],
      "stateMutability": "payable",
      "type": "function",
      "payable": true
    }
  ],
  "bytecode": "0x60806040523480156200001157600080fd5b50336000806101000a81548173ffffffffffffffffffffffffffffffffffffffff021916908373ffffffffffffffffffffffffffffffffffffffff1602179055506040518060400160405280600481526020017f48554a4f00000000000000000000000000000000000000000000000000000000815250600290805190602001906200009f92919062000140565b5060405180606001604052806021815260200162002dcc6021913960039080519060200190620000d192919062000140565b506001600460006101000a81548160ff0219169083151502179055506014600581905550600a600681905550600560088190555060016009819055506602aa1efb94e0006007819055506004600a60006101000a81548160ff021916908360000b60ff160217905550620001ef565b828054600181600116156101000203166002900490600052602060002090601f016020900481019282601f106200018357805160ff1916838001178555620001b4565b82800160010185558215620001b4579182015b82811115620001b357825182559160200191906001019062000196565b5b509050620001c39190620001c7565b5090565b620001ec91905b80821115620001e8576000816000905550600101620001ce565b5090565b90565b612bcd80620001ff6000396000f3fe6080604052600436106101c65760003560e01c806379ba5097116100f7578063c1bf3a2f11610095578063ed88c68e11610064578063ed88c68e14610a70578063f2fde38b14610a7a578063f5710cc514610acb578063fd9c155f14610b1e576101c7565b8063c1bf3a2f14610917578063c383378514610942578063dd62ed3e14610995578063e250ea4414610a1a576101c7565b80639d51d9b7116100d15780639d51d9b7146107bd5780639e01392f14610810578063a9059cbb1461083b578063b392bae6146108ae576101c7565b806379ba5097146106e75780637e5cd5c1146106fe57806395d89b411461072d576101c7565b80633ba0b9a9116101645780634ca9d3d11161013e5780634ca9d3d11461055357806369433e12146105bc57806370a082311461060f57806372a477a114610674576101c7565b80633ba0b9a9146104a357806345938288146104ce5780634bf365df14610524576101c7565b806318160ddd116101a057806318160ddd1461036757806323b872dd146103925780633025d52a14610425578063355e063014610450576101c7565b806306fdde0314610242578063095ea7b3146102d25780631249c58b14610345576101c7565b5b3480156101d357600080fd5b506040517f08c379a00000000000000000000000000000000000000000000000000000000081526004018080602001828103825260128152602001807f46756e6374696f6e206e6f7420666f756e64000000000000000000000000000081525060200191505060405180910390fd5b34801561024e57600080fd5b50610257610b91565b6040518080602001828103825283818151815260200191508051906020019080838360005b8381101561029757808201518184015260208101905061027c565b50505050905090810190601f1680156102c45780820380516001836020036101000a031916815260200191505b509250505060405180910390f35b3480156102de57600080fd5b5061032b600480360360408110156102f557600080fd5b81019080803573ffffffffffffffffffffffffffffffffffffffff16906020019092919080359060200190929190505050610c2f565b604051808215151515815260200191505060405180910390f35b61034d610ce4565b604051808215151515815260200191505060405180910390f35b34801561037357600080fd5b5061037c611038565b6040518082815260200191505060405180910390f35b34801561039e57600080fd5b5061040b600480360360608110156103b557600080fd5b81019080803573ffffffffffffffffffffffffffffffffffffffff169060200190929190803573ffffffffffffffffffffffffffffffffffffffff16906020019092919080359060200190929190505050611040565b604051808215151515815260200191505060405180910390f35b34801561043157600080fd5b5061043a611889565b6040518082815260200191505060405180910390f35b34801561045c57600080fd5b506104896004803603602081101561047357600080fd5b81019080803590602001909291905050506118d4565b604051808215151515815260200191505060405180910390f35b3480156104af57600080fd5b506104b861193f565b6040518082815260200191505060405180910390f35b3480156104da57600080fd5b5061050a600480360360208110156104f157600080fd5b81019080803560000b9060200190929190505050611949565b604051808215151515815260200191505060405180910390f35b34801561053057600080fd5b506105396119cb565b604051808215151515815260200191505060405180910390f35b34801561055f57600080fd5b506105a26004803603602081101561057657600080fd5b81019080803573ffffffffffffffffffffffffffffffffffffffff1690602001909291905050506119de565b604051808215151515815260200191505060405180910390f35b3480156105c857600080fd5b506105f5600480360360208110156105df57600080fd5b8101908080359060200190929190505050611aea565b604051808215151515815260200191505060405180910390f35b34801561061b57600080fd5b5061065e6004803603602081101561063257600080fd5b81019080803573ffffffffffffffffffffffffffffffffffffffff169060200190929190505050611b55565b6040518082815260200191505060405180910390f35b34801561068057600080fd5b506106cd6004803603604081101561069757600080fd5b81019080803573ffffffffffffffffffffffffffffffffffffffff16906020019092919080359060200190929190505050611b9e565b604051808215151515815260200191505060405180910390f35b3480156106f357600080fd5b506106fc611c9e565b005b34801561070a57600080fd5b50610713611e3b565b604051808215151515815260200191505060405180910390f35b34801561073957600080fd5b50610742611efd565b6040518080602001828103825283818151815260200191508051906020019080838360005b83811015610782578082015181840152602081019050610767565b50505050905090810190601f1680156107af5780820380516001836020036101000a031916815260200191505b509250505060405180910390f35b3480156107c957600080fd5b506107f6600480360360208110156107e057600080fd5b8101908080359060200190929190505050611f9b565b604051808215151515815260200191505060405180910390f35b34801561081c57600080fd5b50610825612006565b6040518082815260200191505060405180910390f35b34801561084757600080fd5b506108946004803603604081101561085e57600080fd5b81019080803573ffffffffffffffffffffffffffffffffffffffff1690602001909291908035906020019092919050505061204d565b604051808215151515815260200191505060405180910390f35b3480156108ba57600080fd5b506108fd600480360360208110156108d157600080fd5b81019080803573ffffffffffffffffffffffffffffffffffffffff1690602001909291905050506120bd565b604051808215151515815260200191505060405180910390f35b34801561092357600080fd5b5061092c6122ef565b6040518082815260200191505060405180910390f35b34801561094e57600080fd5b5061097b6004803603602081101561096557600080fd5b81019080803590602001909291905050506122fd565b604051808215151515815260200191505060405180910390f35b3480156109a157600080fd5b50610a04600480360360408110156109b857600080fd5b81019080803573ffffffffffffffffffffffffffffffffffffffff169060200190929190803573ffffffffffffffffffffffffffffffffffffffff169060200190929190505050612368565b6040518082815260200191505060405180910390f35b610a5660048036036040811015610a3057600080fd5b81019080803560000b9060200190929190803560000b90602001909291905050506123b2565b604051808215151515815260200191505060405180910390f35b610a786127ab565b005b348015610a8657600080fd5b50610ac960048036036020811015610a9d57600080fd5b81019080803573ffffffffffffffffffffffffffffffffffffffff169060200190929190505050612863565b005b348015610ad757600080fd5b50610b0460048036036020811015610aee57600080fd5b8101908080359060200190929190505050612900565b604051808215151515815260200191505060405180910390f35b348015610b2a57600080fd5b50610b7760048036036040811015610b4157600080fd5b81019080803573ffffffffffffffffffffffffffffffffffffffff1690602001909291908035906020019092919050505061296b565b604051808215151515815260200191505060405180910390f35b60038054600181600116156101000203166002900480601f016020809104026020016040519081016040528092919081815260200182805460018160011615610100020316600290048015610c275780601f10610bfc57610100808354040283529160200191610c27565b820191906000526020600020905b815481529060010190602001808311610c0a57829003601f168201915b505050505081565b600081601160003373ffffffffffffffffffffffffffffffffffffffff1673ffffffffffffffffffffffffffffffffffffffff168152602001908152602001600020819055508273ffffffffffffffffffffffffffffffffffffffff163373ffffffffffffffffffffffffffffffffffffffff167f8c5be1e5ebec7d5bd14f71427d1e84f3dd0314c0f7b2291e5b200ac8c7c3b925846040518082815260200191505060405180910390a36001905092915050565b6000600460009054906101000a900460ff16610cff57600080fd5b600034118015610d1a575060006007543481610d1757fe5b06145b610d6f576040517f08c379a0000000000000000000000000000000000000000000000000000000008152600401808060200182810382526025815260200180612b466025913960400191505060405180910390fd5b60006007543481610d7c57fe5b0490506000600e60003373ffffffffffffffffffffffffffffffffffffffff1673ffffffffffffffffffffffffffffffffffffffff16815260200190815260200160002054118015610e0d5750600d60003373ffffffffffffffffffffffffffffffffffffffff1673ffffffffffffffffffffffffffffffffffffffff168152602001908152602001600020548111155b610e62576040517f08c379a000000000000000000000000000000000000000000000000000000000815260040180806020018281038252602d815260200180612b6b602d913960400191505060405180910390fd5b6000809054906101000a900473ffffffffffffffffffffffffffffffffffffffff1673ffffffffffffffffffffffffffffffffffffffff166108fc349081150290604051600060405180830381858888f19350505050158015610ec9573d6000803e3d6000fd5b5042600f60003373ffffffffffffffffffffffffffffffffffffffff1673ffffffffffffffffffffffffffffffffffffffff168152602001908152602001600020819055600e60003373ffffffffffffffffffffffffffffffffffffffff1673ffffffffffffffffffffffffffffffffffffffff168152602001908152602001600020819055506000600d60003373ffffffffffffffffffffffffffffffffffffffff1673ffffffffffffffffffffffffffffffffffffffff1681526020019081526020016000208190555080601060003373ffffffffffffffffffffffffffffffffffffffff1673ffffffffffffffffffffffffffffffffffffffff168152602001908152602001600020600082825401925050819055503373ffffffffffffffffffffffffffffffffffffffff167f30385c845b448a36257a6a1716e6ad2e1bc2cbe333cde1e69fe849ad6511adfe826040518082815260200191505060405180910390a2600191505090565b600080905090565b60008373ffffffffffffffffffffffffffffffffffffffff163373ffffffffffffffffffffffffffffffffffffffff16146110e3576040517f08c379a00000000000000000000000000000000000000000000000000000000081526004018080602001828103825260148152602001807f53656e646572206973206e6f74202766726f6d2700000000000000000000000081525060200191505060405180910390fd5b81601160008673ffffffffffffffffffffffffffffffffffffffff1673ffffffffffffffffffffffffffffffffffffffff168152602001908152602001600020541015611198576040517f08c379a000000000000000000000000000000000000000000000000000000000815260040180806020018281038252600c8152602001807f4e6f7420617070726f766564000000000000000000000000000000000000000081525060200191505060405180910390fd5b60055482601060008673ffffffffffffffffffffffffffffffffffffffff1673ffffffffffffffffffffffffffffffffffffffff16815260200190815260200160002054011115611251576040517f08c379a00000000000000000000000000000000000000000000000000000000081526004018080602001828103825260168152602001807f5265636965766572206f7665722d62616c616e6365640000000000000000000081525060200191505060405180910390fd5b6000600b60008673ffffffffffffffffffffffffffffffffffffffff1673ffffffffffffffffffffffffffffffffffffffff16815260200190815260200160002060009054906101000a900460000b60000b1415611317576040517f08c379a00000000000000000000000000000000000000000000000000000000081526004018080602001828103825260158152602001807f53656e646572206e6f742072656769737465726564000000000000000000000081525060200191505060405180910390fd5b6000600b60008573ffffffffffffffffffffffffffffffffffffffff1673ffffffffffffffffffffffffffffffffffffffff16815260200190815260200160002060009054906101000a900460000b60000b14156113dd576040517f08c379a00000000000000000000000000000000000000000000000000000000081526004018080602001828103825260178152602001807f5265636569766572206e6f74207265676973746572656400000000000000000081525060200191505060405180910390fd5b600a60009054906101000a900460000b60000b6002600b60008673ffffffffffffffffffffffffffffffffffffffff1673ffffffffffffffffffffffffffffffffffffffff16815260200190815260200160002060009054906101000a900460000b600b60008873ffffffffffffffffffffffffffffffffffffffff1673ffffffffffffffffffffffffffffffffffffffff16815260200190815260200160002060009054906101000a900460000b03026002600b60008773ffffffffffffffffffffffffffffffffffffffff1673ffffffffffffffffffffffffffffffffffffffff16815260200190815260200160002060009054906101000a900460000b600b60008973ffffffffffffffffffffffffffffffffffffffff1673ffffffffffffffffffffffffffffffffffffffff16815260200190815260200160002060009054906101000a900460000b030202600c60008673ffffffffffffffffffffffffffffffffffffffff1673ffffffffffffffffffffffffffffffffffffffff16815260200190815260200160002060009054906101000a900460000b600c60008873ffffffffffffffffffffffffffffffffffffffff1673ffffffffffffffffffffffffffffffffffffffff16815260200190815260200160002060009054906101000a900460000b03600c60008773ffffffffffffffffffffffffffffffffffffffff1673ffffffffffffffffffffffffffffffffffffffff16815260200190815260200160002060009054906101000a900460000b600c60008973ffffffffffffffffffffffffffffffffffffffff1673ffffffffffffffffffffffffffffffffffffffff16815260200190815260200160002060009054906101000a900460000b03020160000b126116db576040517f08c379a00000000000000000000000000000000000000000000000000000000081526004018080602001828103825260108152602001807f526563656976657220746f6f206661720000000000000000000000000000000081525060200191505060405180910390fd5b6116e4846120bd565b506116ee846119de565b5061174182601060008773ffffffffffffffffffffffffffffffffffffffff1673ffffffffffffffffffffffffffffffffffffffff16815260200190815260200160002054612a6b90919063ffffffff16565b601060008673ffffffffffffffffffffffffffffffffffffffff1673ffffffffffffffffffffffffffffffffffffffff168152602001908152602001600020819055506117d682601060008673ffffffffffffffffffffffffffffffffffffffff1673ffffffffffffffffffffffffffffffffffffffff16815260200190815260200160002054612a8590919063ffffffff16565b601060008573ffffffffffffffffffffffffffffffffffffffff1673ffffffffffffffffffffffffffffffffffffffff168152602001908152602001600020819055508273ffffffffffffffffffffffffffffffffffffffff168473ffffffffffffffffffffffffffffffffffffffff167fddf252ad1be2c89b69c2b068fc378daa952ba7f163c4a11628f55a4df523b3ef846040518082815260200191505060405180910390a3600190509392505050565b6000600754600d60003373ffffffffffffffffffffffffffffffffffffffff1673ffffffffffffffffffffffffffffffffffffffff1681526020019081526020016000205402905090565b60008060009054906101000a900473ffffffffffffffffffffffffffffffffffffffff1673ffffffffffffffffffffffffffffffffffffffff163373ffffffffffffffffffffffffffffffffffffffff161461192f57600080fd5b8160088190555060019050919050565b6000600754905090565b60008060009054906101000a900473ffffffffffffffffffffffffffffffffffffffff1673ffffffffffffffffffffffffffffffffffffffff163373ffffffffffffffffffffffffffffffffffffffff16146119a457600080fd5b81600a60006101000a81548160ff021916908360000b60ff16021790555060019050919050565b600460009054906101000a900460ff1681565b60008062278d00600e60008573ffffffffffffffffffffffffffffffffffffffff1673ffffffffffffffffffffffffffffffffffffffff16815260200190815260200160002054420381611a2e57fe5b0490506000811115611a8e57611a48836009548302612a9f565b5042600e60008573ffffffffffffffffffffffffffffffffffffffff1673ffffffffffffffffffffffffffffffffffffffff168152602001908152602001600020819055505b8273ffffffffffffffffffffffffffffffffffffffff167fdd56f2a6b01dd730087e981ba33fb0790f23935222bec35b818133efeb2345ff60095483026040518082815260200191505060405180910390a26001915050919050565b60008060009054906101000a900473ffffffffffffffffffffffffffffffffffffffff1673ffffffffffffffffffffffffffffffffffffffff163373ffffffffffffffffffffffffffffffffffffffff1614611b4557600080fd5b8160078190555060019050919050565b6000601060008373ffffffffffffffffffffffffffffffffffffffff1673ffffffffffffffffffffffffffffffffffffffff168152602001908152602001600020549050919050565b60008060009054906101000a900473ffffffffffffffffffffffffffffffffffffffff1673ffffffffffffffffffffffffffffffffffffffff163373ffffffffffffffffffffffffffffffffffffffff1614611bf957600080fd5b81601060008573ffffffffffffffffffffffffffffffffffffffff1673ffffffffffffffffffffffffffffffffffffffff168152602001908152602001600020600082825403925050819055508273ffffffffffffffffffffffffffffffffffffffff167f30385c845b448a36257a6a1716e6ad2e1bc2cbe333cde1e69fe849ad6511adfe836040518082815260200191505060405180910390a26001905092915050565b600160009054906101000a900473ffffffffffffffffffffffffffffffffffffffff1673ffffffffffffffffffffffffffffffffffffffff163373ffffffffffffffffffffffffffffffffffffffff1614611cf857600080fd5b600160009054906101000a900473ffffffffffffffffffffffffffffffffffffffff1673ffffffffffffffffffffffffffffffffffffffff166000809054906101000a900473ffffffffffffffffffffffffffffffffffffffff1673ffffffffffffffffffffffffffffffffffffffff167f8be0079c531659141344cd1fd0a4f28419497f9722a3daafe3b4186f6b6457e060405160405180910390a3600160009054906101000a900473ffffffffffffffffffffffffffffffffffffffff166000806101000a81548173ffffffffffffffffffffffffffffffffffffffff021916908373ffffffffffffffffffffffffffffffffffffffff1602179055506000600160006101000a81548173ffffffffffffffffffffffffffffffffffffffff021916908373ffffffffffffffffffffffffffffffffffffffff160217905550565b60008060009054906101000a900473ffffffffffffffffffffffffffffffffffffffff1673ffffffffffffffffffffffffffffffffffffffff163373ffffffffffffffffffffffffffffffffffffffff1614611e9657600080fd5b600460009054906101000a900460ff16611eaf57600080fd5b6000600460006101000a81548160ff0219169083151502179055507faf79b4370f6af9d950564bbe6b81f7f0834c003c455db9248f4e55e6bf865eb760405160405180910390a16001905090565b60028054600181600116156101000203166002900480601f016020809104026020016040519081016040528092919081815260200182805460018160011615610100020316600290048015611f935780601f10611f6857610100808354040283529160200191611f93565b820191906000526020600020905b815481529060010190602001808311611f7657829003601f168201915b505050505081565b60008060009054906101000a900473ffffffffffffffffffffffffffffffffffffffff1673ffffffffffffffffffffffffffffffffffffffff163373ffffffffffffffffffffffffffffffffffffffff1614611ff657600080fd5b8160058190555060019050919050565b6000600d60003373ffffffffffffffffffffffffffffffffffffffff1673ffffffffffffffffffffffffffffffffffffffff16815260200190815260200160002054905090565b60006040517f08c379a000000000000000000000000000000000000000000000000000000000815260040180806020018281038252600b8152602001807f4e6f7420616c6c6f77656400000000000000000000000000000000000000000081525060200191505060405180910390fd5b600080600f60008473ffffffffffffffffffffffffffffffffffffffff1673ffffffffffffffffffffffffffffffffffffffff16815260200190815260200160002054141561210f57600190506122ea565b60006301e13380600f60008573ffffffffffffffffffffffffffffffffffffffff1673ffffffffffffffffffffffffffffffffffffffff1681526020019081526020016000205442038161215f57fe5b04905060008111156122e457600081600854029050601060008573ffffffffffffffffffffffffffffffffffffffff1673ffffffffffffffffffffffffffffffffffffffff168152602001908152602001600020548111156121fe57601060008573ffffffffffffffffffffffffffffffffffffffff1673ffffffffffffffffffffffffffffffffffffffff1681526020019081526020016000205490505b6122088482612a9f565b50816301e1338002600f60008673ffffffffffffffffffffffffffffffffffffffff1673ffffffffffffffffffffffffffffffffffffffff1681526020019081526020016000205401600f60008673ffffffffffffffffffffffffffffffffffffffff1673ffffffffffffffffffffffffffffffffffffffff168152602001908152602001600020819055508373ffffffffffffffffffffffffffffffffffffffff167f4daedca3f30b013a0a1214269e7bb3b20637e8a1b70906a0f826d70abf4edcc4826040518082815260200191505060405180910390a2505b60019150505b919050565b600060075460065402905090565b60008060009054906101000a900473ffffffffffffffffffffffffffffffffffffffff1673ffffffffffffffffffffffffffffffffffffffff163373ffffffffffffffffffffffffffffffffffffffff161461235857600080fd5b8160098190555060019050919050565b6000601160008473ffffffffffffffffffffffffffffffffffffffff1673ffffffffffffffffffffffffffffffffffffffff16815260200190815260200160002054905092915050565b6000600460009054906101000a900460ff166123cd57600080fd5b6000341180156123e85750600060075434816123e557fe5b06145b61243d576040517f08c379a0000000000000000000000000000000000000000000000000000000008152600401808060200182810382526025815260200180612b466025913960400191505060405180910390fd5b6000600754348161244a57fe5b0490506000600e60003373ffffffffffffffffffffffffffffffffffffffff1673ffffffffffffffffffffffffffffffffffffffff1681526020019081526020016000205414801561249d575060065481145b61250f576040517f08c379a000000000000000000000000000000000000000000000000000000000815260040180806020018281038252601d8152602001807f496e636f72726563742066756e642e2053656520656e726f6c436f737400000081525060200191505060405180910390fd5b6000809054906101000a900473ffffffffffffffffffffffffffffffffffffffff1673ffffffffffffffffffffffffffffffffffffffff166108fc349081150290604051600060405180830381858888f19350505050158015612576573d6000803e3d6000fd5b5083600b60003373ffffffffffffffffffffffffffffffffffffffff1673ffffffffffffffffffffffffffffffffffffffff16815260200190815260200160002060006101000a81548160ff021916908360000b60ff16021790555082600c60003373ffffffffffffffffffffffffffffffffffffffff1673ffffffffffffffffffffffffffffffffffffffff16815260200190815260200160002060006101000a81548160ff021916908360000b60ff16021790555042600f60003373ffffffffffffffffffffffffffffffffffffffff1673ffffffffffffffffffffffffffffffffffffffff168152602001908152602001600020819055600e60003373ffffffffffffffffffffffffffffffffffffffff1673ffffffffffffffffffffffffffffffffffffffff168152602001908152602001600020819055506000600d60003373ffffffffffffffffffffffffffffffffffffffff1673ffffffffffffffffffffffffffffffffffffffff1681526020019081526020016000208190555061270433600554610c2f565b5080601060003373ffffffffffffffffffffffffffffffffffffffff1673ffffffffffffffffffffffffffffffffffffffff168152602001908152602001600020600082825401925050819055503373ffffffffffffffffffffffffffffffffffffffff167f30385c845b448a36257a6a1716e6ad2e1bc2cbe333cde1e69fe849ad6511adfe826040518082815260200191505060405180910390a2600191505092915050565b6000809054906101000a900473ffffffffffffffffffffffffffffffffffffffff1673ffffffffffffffffffffffffffffffffffffffff166108fc349081150290604051600060405180830381858888f19350505050158015612812573d6000803e3d6000fd5b503373ffffffffffffffffffffffffffffffffffffffff167f2a01595cddf097c90216094025db714da3f4e5bd8877b56ba86a24ecead8e543346040518082815260200191505060405180910390a2565b6000809054906101000a900473ffffffffffffffffffffffffffffffffffffffff1673ffffffffffffffffffffffffffffffffffffffff163373ffffffffffffffffffffffffffffffffffffffff16146128bc57600080fd5b80600160006101000a81548173ffffffffffffffffffffffffffffffffffffffff021916908373ffffffffffffffffffffffffffffffffffffffff16021790555050565b60008060009054906101000a900473ffffffffffffffffffffffffffffffffffffffff1673ffffffffffffffffffffffffffffffffffffffff163373ffffffffffffffffffffffffffffffffffffffff161461295b57600080fd5b8160068190555060019050919050565b60008060009054906101000a900473ffffffffffffffffffffffffffffffffffffffff1673ffffffffffffffffffffffffffffffffffffffff163373ffffffffffffffffffffffffffffffffffffffff16146129c657600080fd5b81601060008573ffffffffffffffffffffffffffffffffffffffff1673ffffffffffffffffffffffffffffffffffffffff168152602001908152602001600020600082825401925050819055508273ffffffffffffffffffffffffffffffffffffffff167f30385c845b448a36257a6a1716e6ad2e1bc2cbe333cde1e69fe849ad6511adfe836040518082815260200191505060405180910390a26001905092915050565b600082821115612a7a57600080fd5b818303905092915050565b6000818301905082811015612a9957600080fd5b92915050565b600081600d60008573ffffffffffffffffffffffffffffffffffffffff1673ffffffffffffffffffffffffffffffffffffffff1681526020019081526020016000206000828254019250508190555081601060008573ffffffffffffffffffffffffffffffffffffffff1673ffffffffffffffffffffffffffffffffffffffff16815260200190815260200160002060008282540392505081905550600190509291505056fe496e73756666696369656e742066756e64206f72206e6f74204578616374206368616e6765496e636f72726563742066756e642e204d757374203d207461786564282920782065786368616e676520776569a26469706673582212206896251ccffef1cbc5bd6e287064e63e86b9f6bc7e444b11848e9ab0f3d2434e64736f6c634300060600334120636f6d6d756e69747920736b696c6c732065786368616e676520746f6b656e",
  "immutableReferences": {},
  "source": "pragma solidity >=0.4.22 <0.7.0;\n\n//SPDX-License-Identifier: MIT\n//----------------------------------------------------------------------------\n//'HUJO COIN' A community services exchange token contract\n//\n//Symbol      : HUJO\n//Name        : A community service exchange token\n//\n//(c) Daniel Leung | Kikiio.com 2020. The MIT Licence.\n//----------------------------------------------------------------------------\n\n\n//----------------------------------------------------------------------------\n//Safe maths\n//----------------------------------------------------------------------------\nlibrary SafeMath {\n function add(uint a, uint b) internal pure returns (uint c) {\n     c = a + b;\n     require(c >= a);\n }\n function sub(uint a, uint b) internal pure returns (uint c) {\n     require(b <= a);\n     c = a - b;\n }\n function mul(uint a, uint b) internal pure returns (uint c) {\n     c = a * b;\n     require(a == 0 || c / a == b);\n }\n function div(uint a, uint b) internal pure returns (uint c) {\n     require(b > 0);\n     c = a / b;\n }\n}\n\n\n//----------------------------------------------------------------------------\n//ERC Token Standard #20 Interface\n//https://github.com/ethereum/EIPs/blob/master/EIPS/eip-20.md\n//----------------------------------------------------------------------------\nabstract contract ERC20Interface {\n function totalSupply() public virtual view returns (uint);\n function balanceOf(address tokenOwner) public virtual view returns (uint balance);\n function allowance(address tokenOwner, address spender) public virtual view returns (uint remaining);\n function transfer(address to, uint tokens) public virtual returns (bool success);\n function approve(address spender, uint tokens) public virtual returns (bool success);\n function transferFrom(address from, address to, uint tokens) public virtual returns (bool success);\n\n event Transfer(address indexed from, address indexed to, uint tokens);\n event Approval(address indexed tokenOwner, address indexed spender, uint tokens);\n}\n\n\n//----------------------------------------------------------------------------\n//Contract function to receive approval and execute function in one call\n//\n//Borrowed from MiniMeToken\n//----------------------------------------------------------------------------\nabstract contract ApproveAndCallFallBack {\n function receiveApproval(address from, uint256 tokens, address token, bytes memory data) public virtual;\n}\n\n\n//----------------------------------------------------------------------------\n//Owned contract\n//----------------------------------------------------------------------------\ncontract Owned {\n address payable internal owner;\n address payable private newOwner;\n\n event OwnershipTransferred(address payable indexed _from, address payable indexed _to);\n\n constructor() public {\n     owner = msg.sender;\n }\n\n modifier onlyOwner {\n     require(msg.sender == owner);\n     _;\n }\n\n function transferOwnership(address payable _newOwner) public onlyOwner {\n     newOwner = _newOwner;\n }\n function acceptOwnership() public {\n     require(msg.sender == newOwner);\n     emit OwnershipTransferred(owner, newOwner);\n     owner = newOwner;\n     newOwner = address(0);\n }\n}\n\n\n\n//----------------------------------------------------------------------------\n//ERC20 Token, with the addition of symbol, name and decimals and a\n//Hujo\n//----------------------------------------------------------------------------\ncontract HujoCoin is ERC20Interface, Owned {\n\tusing SafeMath for uint;\n\t\n\t//TODO try shorten names to see effects on size\n\t\n\tstring public symbol;\n    string public name;\n    bool public mintable; //TODO combine with other booleans to save gas\n    uint _maxBalance;\n    uint _initialBalance;\n    uint _exchange;\n    uint _annualTax;\n    uint _idleTax;\n    int8 _maxDistancePoint;\n    mapping(address => int8) roundedLongs;\n    mapping(address => int8) roundedLats;\n    mapping(address => uint) taxedAmounts;\n    mapping(address => uint) lastTransactionDates;\n    mapping(address => uint) lastTaxedDates;\n    mapping(address => uint) balances;\n    mapping(address => uint) allowed;\n    event MintingDisabled();\n    event Minted(address indexed _to, uint _value);\n    event Minced(address indexed _from, uint _value);\n    event AnnualTaxDeducted(address indexed _to, uint _value);\n    event IdleTaxDeducted(address indexed _to, uint _value);\n    event Donated(address indexed _from, uint _value);\n    \n    // ------------------------------------------------------------------------\n    // Constructor\n    // ------------------------------------------------------------------------\n    constructor() public {\n        symbol = \"HUJO\";\n        name = \"A community skills exchange token\";\n        mintable = true;\n        _maxBalance = 20; //Tokens\n        _initialBalance = 10; // Tokens\n        _annualTax = 5;\n        _idleTax = 1; //monthly\n        _exchange = 750000000000000; //Wei - Initial exchange = 0.00075 Eth ~ 25 cents CDN\n        _maxDistancePoint = 4; //~100km\n    }\n    \n\n    function setMaxBalance(uint balance) onlyOwner external returns (bool success) {\n    \t_maxBalance = balance;\n    \treturn true;\n    }\n    \n    \n    function setInitialBalance(uint balance) onlyOwner external returns (bool success) {\n    \t_initialBalance = balance;\n    \treturn true;\n    }\n    \n    \n    function setAnnualTax(uint tax) onlyOwner external returns (bool success) {\n    \t_annualTax = tax;\n    \treturn true;\n    }\n    \n    \n    function setIdleTax(uint tax) onlyOwner external returns (bool success) {\n    \t_idleTax = tax;\n    \treturn true;\n    }\n    \n    \n    function setMaxDistancePoint(int8 distancePoint) onlyOwner external returns (bool success) {\n    \t_maxDistancePoint = distancePoint;\n    \treturn true;\n    }\n    \n    \n    //update the exchange rate\n    function setExchange(uint exchange) onlyOwner external returns (bool success) {\n    \t_exchange = exchange;\n    \treturn true;\n    }\n\n    \n    function disableMinting() onlyOwner external returns (bool success) {\n    \trequire(mintable);\n    \tmintable = false;\n    \temit MintingDisabled();\n    \treturn true;\n    }\n    \n    \n    /**\n     * - Entry point for new account\n     * - Amount must equal initialBalance\n     */    \n    function mintEnrol(int8 roundedLong, int8 roundedLat) external payable returns (bool success) {\n    \trequire(mintable);\n    \trequire(\n    \t\tmsg.value > 0 && msg.value % _exchange == 0, \n\t\t\t\"Insufficient fund or not Exact change\"\n\t\t);\n    \tuint tokens = msg.value / _exchange; \n    \trequire(\n    \t\tlastTransactionDates[msg.sender] == 0 && tokens == _initialBalance, \n\t\t\t\"Incorrect fund. See enrolCost\"\n\t\t); \n    \t\n    \towner.transfer(msg.value);\n    \t\n    \t//TODO can these combined into one int8?\n    \t//TODO can these be uint8? eg if > 1000 then treat as -ve? but will need conversion? conversion is expensive too.\n    \troundedLongs[msg.sender] = roundedLong;\n    \troundedLats[msg.sender] = roundedLat;\n    \t\n    \tlastTransactionDates[msg.sender] = lastTaxedDates[msg.sender] = now;\n    \ttaxedAmounts[msg.sender] = 0;\n\n    \t//Pre approve to max balance\n    \tapprove(msg.sender, _maxBalance);\n    \t\n    \tbalances[msg.sender] += tokens;\n    \t\n    \temit Minted(msg.sender, tokens);\n    \t\n    \treturn true;\n    }\n    \n    \n    /**\n     * - Can mint the taxed amount or less\n     * - For existing user only\n     */\n    function mint() external payable returns (bool success) {\n    \trequire(mintable);\n    \trequire(\n    \t\tmsg.value > 0 && msg.value % _exchange == 0, \n\t\t\t\"Insufficient fund or not Exact change\"\n\t\t);\n    \tuint tokens = msg.value / _exchange; \n    \trequire(\n\t\t\tlastTransactionDates[msg.sender] > 0 && tokens <= taxedAmounts[msg.sender],\n\t\t\t\"Incorrect fund. Must = taxed() x exchange wei\"\n\t\t); \n    \t\n    \towner.transfer(msg.value);\n\n    \tlastTransactionDates[msg.sender] = lastTaxedDates[msg.sender] = now;\n    \ttaxedAmounts[msg.sender] = 0;\n    \t\n    \tbalances[msg.sender] += tokens;\n\n    \temit Minted(msg.sender, tokens);\n    \t\n    \treturn true;\n    }\n    \n    \n    /**\n     * Returns wei required to join \n     */\n    function enrolCost() external view returns (uint amount) {\n    \treturn _initialBalance * _exchange;\n    }\n    \n    \n    /**\n     * Returns wei of currently taxed \n     */\n    function topupCost() external view returns (uint amount) {\n    \treturn taxedAmounts[msg.sender] * _exchange;\n    }\n    \n    \n    /**\n     * Returns exchange rate\n     */\n    function exchangeRate() external view returns (uint amount) {\n    \treturn _exchange;\n    }\n    \n    \n    /**\n     * For extremem cases, owner can mint any amount of tokens to a user\n     */\n    function mintAny(address to, uint tokens) onlyOwner public returns (bool success) {\n    \tbalances[to] += tokens;\n    \temit Minted(to, tokens);\n        return true;\n    }\n    \n    \n    /**\n     * Opposite of mintAny - destroy any amount of tokens from a user\n     */\n    function minceAny(address from, uint tokens) onlyOwner public returns (bool success) {\n    \tbalances[from] -= tokens;\n    \temit Minted(from, tokens);\n        return true;\n    }\n    \n    \n    function tax(address taxPayer, uint tokens) internal returns (bool success) {\n    \ttaxedAmounts[taxPayer] += tokens;\n        balances[taxPayer] -= tokens;\n        return true;\n    }\n    \n    \n    /**\n     * AKA system fee \n     */\n    function annualTax(address taxPayer) public returns (bool success) {\n    \tif (lastTaxedDates[taxPayer] == 0) {\n    \t    return true;\n    \t} \n    \t\n    \tuint numYrPass = (now - lastTaxedDates[taxPayer]) / (365 days);\n    \tif (numYrPass > 0) {\n    \t\tuint taxAmount = _annualTax * numYrPass;\n    \t\tif (taxAmount > balances[taxPayer]) {\n    \t\t\ttaxAmount = balances[taxPayer];\n    \t\t}\n    \t\ttax(taxPayer, taxAmount);\n        \tlastTaxedDates[taxPayer] = lastTaxedDates[taxPayer] + (365 days) * numYrPass;\n        \temit AnnualTaxDeducted(taxPayer, taxAmount);\t\n    \t}\n    \t\n    \treturn true;\n    }\n    \n    \n    function idleTax(address taxPayer) public returns (bool success) {\n    \tuint monthsIdled = (now - lastTransactionDates[taxPayer]) / 30 days;\n    \tif (monthsIdled > 0) {\n    \t\ttax(taxPayer, monthsIdled * _idleTax);\n    \t\tlastTransactionDates[taxPayer] = now;\n    \t}\n    \temit IdleTaxDeducted(taxPayer, monthsIdled * _idleTax);\n    \treturn true;\n    }\n    \n    \n    function taxed() external view returns (uint tokens) {\n    \treturn taxedAmounts[msg.sender];\n    }\n    \n    \n    // ------------------------------------------------------------------------\n    // Total supply\n    // ------------------------------------------------------------------------\n    function totalSupply() public override view returns (uint) {\n        //return _totalSupply.sub(balances[address(0)]);\n    \treturn 0;\n    }\n    \n    \n    // ------------------------------------------------------------------------\n    // Get the token balance for account `tokenOwner`\n    // ------------------------------------------------------------------------\n    function balanceOf(address tokenOwner) public override view returns (uint balance) {\n    \treturn balances[tokenOwner];\n    }\n\n\n    // ------------------------------------------------------------------------\n    // Transfer the balance from token owner's account to `to` account\n    // - Owner's account must have sufficient balance to transfer\n    // - 0 value transfers are allowed\n    // ------------------------------------------------------------------------\n    function transfer(address to, uint tokens) public override returns (bool success) {\n    \trevert('Not allowed');\n    \t//return true;\n    \t\n    \t//balances[msg.sender] = balances[msg.sender].sub(tokens);\n        //balances[to] = balances[to].add(tokens);\n        //emit Transfer(msg.sender, to, tokens);\n        //return true;\n    }\n\n\n    /**\n     * Called only once when account initiated\n     */\n    // ------------------------------------------------------------------------\n    // Token owner can approve for `spender` to transferFrom(...) `tokens`\n    // from the token owner's account\n    //\n    // https://github.com/ethereum/EIPs/blob/master/EIPS/eip-20-token-standard.md\n    // recommends that there are no checks for the approval double-spend attack\n    // as this should be implemented in user interfaces\n    // ------------------------------------------------------------------------\n    function approve(address spender, uint tokens) public override returns (bool success) {\n    \t//TODO disregard receiver and change approveAndCall\n    \t\n    \tallowed[msg.sender] = tokens;\n        emit Approval(msg.sender, spender, tokens);\n        return true;\n    }\n\n\n    // ------------------------------------------------------------------------\n    // Transfer `tokens` from the `from` account to the `to` account\n    //\n    // The calling account must already have sufficient tokens approve(...)-d\n    // for spending from the `from` account and\n    // - From account must have sufficient balance to transfer\n    // - Spender must have sufficient allowance to transfer\n    // - 0 value transfers are allowed\n    // ------------------------------------------------------------------------\n    function transferFrom(address from, address to, uint tokens) public override returns (bool success) {\n    \trequire(msg.sender == from, \"Sender is not 'from'\");\n    \trequire(allowed[from] >= tokens, \"Not approved\");\n    \trequire(balances[to] + tokens <= _maxBalance, \"Reciever over-balanced\");\n    \trequire(roundedLongs[from] != 0, \"Sender not registered\");\n    \trequire(roundedLongs[to] != 0, \"Receiver not registered\");\n    \t//Taken from https://stackoverflow.com/questions/6548940/sql-distance-query-without-trigonometry\n    \trequire(\n\t\t\t(\n\t\t\t\t(roundedLats[from] - roundedLats[to]) * \n\t\t\t\t(roundedLats[from] - roundedLats[to]) + \n\t\t\t\t((roundedLongs[from] - roundedLongs[to]) * 2) * \n\t\t\t\t((roundedLongs[from] - roundedLongs[to]) * 2)\n\t\t\t) < _maxDistancePoint,\n\t\t\t\"Receiver too far\"\n\t\t);\n    \tannualTax(from);\n    \tidleTax(from);\n    \t//TODO Is this necessary rather than using safeMath for tax not to be reverted\n    \t//assert(balances[from] - tokens > 0, \"Not sufficient fund\");\n    \t\n    \tbalances[from] = balances[from].sub(tokens);\n        balances[to] = balances[to].add(tokens);\n        emit Transfer(from, to, tokens);\n        return true;\n    }\n\n\n    // ------------------------------------------------------------------------\n    // Returns the amount of tokens approved by the owner that can be\n    // transferred to the spender's account\n    // ------------------------------------------------------------------------\n    function allowance(address tokenOwner, address spender) public override view returns (uint remaining) {\n    \treturn allowed[tokenOwner];\n    }\n\n    \n    // ------------------------------------------------------------------------\n    // Donation to owner\n    // ------------------------------------------------------------------------\n    function donate() external payable {\n    \towner.transfer(msg.value);\n    \temit Donated(msg.sender, msg.value);\n    }   \n    \n    fallback() external {\n    \trevert('Function not found');\n    }\n}",
  "sourcePath": "/Users/leyond/Documents/workspace_62/hujoCoin/contracts/HujoCoin.sol",
  "compiler": {
    "name": "solc",
    "version": "0.6.6+commit.6c089d02.Emscripten.clang"
  },
  "schemaVersion": "3.1.0",
  "updatedAt": "2020-06-27T23:43:34.300Z",
  "networkType": "ethereum",
  "devdoc": {
    "methods": {}
  },
  "userdoc": {
    "methods": {
      "annualTax(address)": {
        "notice": "AKA system fee "
      },
      "approve(address,uint256)": {
        "notice": "Called only once when account initiated"
      },
      "enrolCost()": {
        "notice": "Returns wei required to join "
      },
      "exchangeRate()": {
        "notice": "Returns exchange rate"
      },
      "minceAny(address,uint256)": {
        "notice": "Opposite of mintAny - destroy any amount of tokens from a user"
      },
      "mint()": {
        "notice": "- Can mint the taxed amount or less - For existing user only"
      },
      "mintAny(address,uint256)": {
        "notice": "For extremem cases, owner can mint any amount of tokens to a user"
      },
      "mintEnrol(int8,int8)": {
        "notice": "- Entry point for new account - Amount must equal initialBalance"
      },
      "topupCost()": {
        "notice": "Returns wei of currently taxed "
      }
    }
  }
}